{
  "contractName": "FxERC20",
  "abi": [
    {
      "anonymous": false,
      "inputs": [
        {
          "indexed": true,
          "internalType": "address",
          "name": "owner",
          "type": "address"
        },
        {
          "indexed": true,
          "internalType": "address",
          "name": "spender",
          "type": "address"
        },
        {
          "indexed": false,
          "internalType": "uint256",
          "name": "value",
          "type": "uint256"
        }
      ],
      "name": "Approval",
      "type": "event"
    },
    {
      "anonymous": false,
      "inputs": [
        {
          "indexed": true,
          "internalType": "address",
          "name": "from",
          "type": "address"
        },
        {
          "indexed": true,
          "internalType": "address",
          "name": "to",
          "type": "address"
        },
        {
          "indexed": false,
          "internalType": "uint256",
          "name": "value",
          "type": "uint256"
        }
      ],
      "name": "Transfer",
      "type": "event"
    },
    {
      "inputs": [
        {
          "internalType": "address",
          "name": "owner",
          "type": "address"
        },
        {
          "internalType": "address",
          "name": "spender",
          "type": "address"
        }
      ],
      "name": "allowance",
      "outputs": [
        {
          "internalType": "uint256",
          "name": "",
          "type": "uint256"
        }
      ],
      "stateMutability": "view",
      "type": "function"
    },
    {
      "inputs": [
        {
          "internalType": "address",
          "name": "spender",
          "type": "address"
        },
        {
          "internalType": "uint256",
          "name": "amount",
          "type": "uint256"
        }
      ],
      "name": "approve",
      "outputs": [
        {
          "internalType": "bool",
          "name": "",
          "type": "bool"
        }
      ],
      "stateMutability": "nonpayable",
      "type": "function"
    },
    {
      "inputs": [
        {
          "internalType": "address",
          "name": "account",
          "type": "address"
        }
      ],
      "name": "balanceOf",
      "outputs": [
        {
          "internalType": "uint256",
          "name": "",
          "type": "uint256"
        }
      ],
      "stateMutability": "view",
      "type": "function"
    },
    {
      "inputs": [],
      "name": "decimals",
      "outputs": [
        {
          "internalType": "uint8",
          "name": "",
          "type": "uint8"
        }
      ],
      "stateMutability": "view",
      "type": "function"
    },
    {
      "inputs": [
        {
          "internalType": "address",
          "name": "spender",
          "type": "address"
        },
        {
          "internalType": "uint256",
          "name": "subtractedValue",
          "type": "uint256"
        }
      ],
      "name": "decreaseAllowance",
      "outputs": [
        {
          "internalType": "bool",
          "name": "",
          "type": "bool"
        }
      ],
      "stateMutability": "nonpayable",
      "type": "function"
    },
    {
      "inputs": [
        {
          "internalType": "address",
          "name": "spender",
          "type": "address"
        },
        {
          "internalType": "uint256",
          "name": "addedValue",
          "type": "uint256"
        }
      ],
      "name": "increaseAllowance",
      "outputs": [
        {
          "internalType": "bool",
          "name": "",
          "type": "bool"
        }
      ],
      "stateMutability": "nonpayable",
      "type": "function"
    },
    {
      "inputs": [],
      "name": "name",
      "outputs": [
        {
          "internalType": "string",
          "name": "",
          "type": "string"
        }
      ],
      "stateMutability": "view",
      "type": "function"
    },
    {
      "inputs": [],
      "name": "symbol",
      "outputs": [
        {
          "internalType": "string",
          "name": "",
          "type": "string"
        }
      ],
      "stateMutability": "view",
      "type": "function"
    },
    {
      "inputs": [],
      "name": "totalSupply",
      "outputs": [
        {
          "internalType": "uint256",
          "name": "",
          "type": "uint256"
        }
      ],
      "stateMutability": "view",
      "type": "function"
    },
    {
      "inputs": [
        {
          "internalType": "address",
          "name": "recipient",
          "type": "address"
        },
        {
          "internalType": "uint256",
          "name": "amount",
          "type": "uint256"
        }
      ],
      "name": "transfer",
      "outputs": [
        {
          "internalType": "bool",
          "name": "",
          "type": "bool"
        }
      ],
      "stateMutability": "nonpayable",
      "type": "function"
    },
    {
      "inputs": [
        {
          "internalType": "address",
          "name": "sender",
          "type": "address"
        },
        {
          "internalType": "address",
          "name": "recipient",
          "type": "address"
        },
        {
          "internalType": "uint256",
          "name": "amount",
          "type": "uint256"
        }
      ],
      "name": "transferFrom",
      "outputs": [
        {
          "internalType": "bool",
          "name": "",
          "type": "bool"
        }
      ],
      "stateMutability": "nonpayable",
      "type": "function"
    },
    {
      "inputs": [
        {
          "internalType": "address",
          "name": "fxManager_",
          "type": "address"
        },
        {
          "internalType": "address",
          "name": "connectedToken_",
          "type": "address"
        },
        {
          "internalType": "string",
          "name": "name_",
          "type": "string"
        },
        {
          "internalType": "string",
          "name": "symbol_",
          "type": "string"
        },
        {
          "internalType": "uint8",
          "name": "decimals_",
          "type": "uint8"
        }
      ],
      "name": "initialize",
      "outputs": [],
      "stateMutability": "nonpayable",
      "type": "function"
    },
    {
      "inputs": [],
      "name": "fxManager",
      "outputs": [
        {
          "internalType": "address",
          "name": "",
          "type": "address"
        }
      ],
      "stateMutability": "view",
      "type": "function"
    },
    {
      "inputs": [],
      "name": "connectedToken",
      "outputs": [
        {
          "internalType": "address",
          "name": "",
          "type": "address"
        }
      ],
      "stateMutability": "view",
      "type": "function"
    },
    {
      "inputs": [
        {
          "internalType": "string",
          "name": "_name",
          "type": "string"
        },
        {
          "internalType": "string",
          "name": "_symbol",
          "type": "string"
        },
        {
          "internalType": "uint8",
          "name": "_decimals",
          "type": "uint8"
        }
      ],
      "name": "setupMetaData",
      "outputs": [],
      "stateMutability": "nonpayable",
      "type": "function"
    },
    {
      "inputs": [
        {
          "internalType": "address",
          "name": "user",
          "type": "address"
        },
        {
          "internalType": "uint256",
          "name": "amount",
          "type": "uint256"
        }
      ],
      "name": "mint",
      "outputs": [],
      "stateMutability": "nonpayable",
      "type": "function"
    },
    {
      "inputs": [
        {
          "internalType": "address",
          "name": "user",
          "type": "address"
        },
        {
          "internalType": "uint256",
          "name": "amount",
          "type": "uint256"
        }
      ],
      "name": "burn",
      "outputs": [],
      "stateMutability": "nonpayable",
      "type": "function"
    }
  ],
  "bytecode": "0x608060405234801561001057600080fd5b50612315806100206000396000f3fe608060405234801561001057600080fd5b506004361061010b5760003560e01c806370a08231116100a25780639dc29fac116100715780639dc29fac146102bc578063a457c2d7146102d8578063a9059cbb14610308578063af1e6be714610338578063dd62ed3e146103545761010b565b806370a08231146102345780638420ce991461026457806395d89b41146102805780639b7791531461029e5761010b565b806323b872dd116100de57806323b872dd1461019a578063313ce567146101ca57806339509351146101e857806340c10f19146102185761010b565b806306fdde0314610110578063095ea7b31461012e5780630a8a49141461015e57806318160ddd1461017c575b600080fd5b610118610384565b6040516101259190611521565b60405180910390f35b610148600480360381019061014391906115eb565b610416565b6040516101559190611646565b60405180910390f35b61016661042d565b6040516101739190611670565b60405180910390f35b610184610457565b604051610191919061169a565b60405180910390f35b6101b460048036038101906101af91906116b5565b610461565b6040516101c19190611646565b60405180910390f35b6101d261052c565b6040516101df9190611724565b60405180910390f35b61020260048036038101906101fd91906115eb565b610543565b60405161020f9190611646565b60405180910390f35b610232600480360381019061022d91906115eb565b6105e8565b005b61024e6004803603810190610249919061173f565b610686565b60405161025b919061169a565b60405180910390f35b61027e600480360381019061027991906118cd565b6106ce565b005b61028861084d565b6040516102959190611521565b60405180910390f35b6102a66108df565b6040516102b39190611670565b60405180910390f35b6102d660048036038101906102d191906115eb565b610909565b005b6102f260048036038101906102ed91906115eb565b6109a7565b6040516102ff9190611646565b60405180910390f35b610322600480360381019061031d91906115eb565b610a66565b60405161032f9190611646565b60405180910390f35b610352600480360381019061034d9190611980565b610a7d565b005b61036e60048036038101906103699190611a0b565b610b1d565b60405161037b919061169a565b60405180910390f35b60606003805461039390611a7a565b80601f01602080910402602001604051908101604052809291908181526020018280546103bf90611a7a565b801561040c5780601f106103e15761010080835404028352916020019161040c565b820191906000526020600020905b8154815290600101906020018083116103ef57829003601f168201915b5050505050905090565b6000610423338484610ba4565b6001905092915050565b6000600660009054906101000a900473ffffffffffffffffffffffffffffffffffffffff16905090565b6000600254905090565b600061046e848484610d6d565b610521843361051c8560405180606001604052806028815260200161229360289139600160008b73ffffffffffffffffffffffffffffffffffffffff1673ffffffffffffffffffffffffffffffffffffffff16815260200190815260200160002060003373ffffffffffffffffffffffffffffffffffffffff1673ffffffffffffffffffffffffffffffffffffffff168152602001908152602001600020546110009092919063ffffffff16565b610ba4565b600190509392505050565b6000600560009054906101000a900460ff16905090565b60006105de33846105d985600160003373ffffffffffffffffffffffffffffffffffffffff1673ffffffffffffffffffffffffffffffffffffffff16815260200190815260200160002060008973ffffffffffffffffffffffffffffffffffffffff1673ffffffffffffffffffffffffffffffffffffffff1681526020019081526020016000205461106490919063ffffffff16565b610ba4565b6001905092915050565b600560019054906101000a900473ffffffffffffffffffffffffffffffffffffffff1673ffffffffffffffffffffffffffffffffffffffff163373ffffffffffffffffffffffffffffffffffffffff1614610678576040517f08c379a000000000000000000000000000000000000000000000000000000000815260040161066f90611af7565b60405180910390fd5b61068282826110c2565b5050565b60008060008373ffffffffffffffffffffffffffffffffffffffff1673ffffffffffffffffffffffffffffffffffffffff168152602001908152602001600020549050919050565b600073ffffffffffffffffffffffffffffffffffffffff16600560019054906101000a900473ffffffffffffffffffffffffffffffffffffffff1673ffffffffffffffffffffffffffffffffffffffff1614801561077a5750600073ffffffffffffffffffffffffffffffffffffffff16600660009054906101000a900473ffffffffffffffffffffffffffffffffffffffff1673ffffffffffffffffffffffffffffffffffffffff16145b6107b9576040517f08c379a00000000000000000000000000000000000000000000000000000000081526004016107b090611b63565b60405180910390fd5b84600560016101000a81548173ffffffffffffffffffffffffffffffffffffffff021916908373ffffffffffffffffffffffffffffffffffffffff16021790555083600660006101000a81548173ffffffffffffffffffffffffffffffffffffffff021916908373ffffffffffffffffffffffffffffffffffffffff160217905550610846838383610a7d565b5050505050565b60606004805461085c90611a7a565b80601f016020809104026020016040519081016040528092919081815260200182805461088890611a7a565b80156108d55780601f106108aa576101008083540402835291602001916108d5565b820191906000526020600020905b8154815290600101906020018083116108b857829003601f168201915b5050505050905090565b6000600560019054906101000a900473ffffffffffffffffffffffffffffffffffffffff16905090565b600560019054906101000a900473ffffffffffffffffffffffffffffffffffffffff1673ffffffffffffffffffffffffffffffffffffffff163373ffffffffffffffffffffffffffffffffffffffff1614610999576040517f08c379a000000000000000000000000000000000000000000000000000000000815260040161099090611af7565b60405180910390fd5b6109a38282611255565b5050565b6000610a5c3384610a57856040518060600160405280602581526020016122bb60259139600160003373ffffffffffffffffffffffffffffffffffffffff1673ffffffffffffffffffffffffffffffffffffffff16815260200190815260200160002060008a73ffffffffffffffffffffffffffffffffffffffff1673ffffffffffffffffffffffffffffffffffffffff168152602001908152602001600020546110009092919063ffffffff16565b610ba4565b6001905092915050565b6000610a73338484610d6d565b6001905092915050565b600560019054906101000a900473ffffffffffffffffffffffffffffffffffffffff1673ffffffffffffffffffffffffffffffffffffffff163373ffffffffffffffffffffffffffffffffffffffff1614610b0d576040517f08c379a0000000000000000000000000000000000000000000000000000000008152600401610b0490611af7565b60405180910390fd5b610b18838383611402565b505050565b6000600160008473ffffffffffffffffffffffffffffffffffffffff1673ffffffffffffffffffffffffffffffffffffffff16815260200190815260200160002060008373ffffffffffffffffffffffffffffffffffffffff1673ffffffffffffffffffffffffffffffffffffffff16815260200190815260200160002054905092915050565b600073ffffffffffffffffffffffffffffffffffffffff168373ffffffffffffffffffffffffffffffffffffffff1603610c13576040517f08c379a0000000000000000000000000000000000000000000000000000000008152600401610c0a90611bf5565b60405180910390fd5b600073ffffffffffffffffffffffffffffffffffffffff168273ffffffffffffffffffffffffffffffffffffffff1603610c82576040517f08c379a0000000000000000000000000000000000000000000000000000000008152600401610c7990611c87565b60405180910390fd5b80600160008573ffffffffffffffffffffffffffffffffffffffff1673ffffffffffffffffffffffffffffffffffffffff16815260200190815260200160002060008473ffffffffffffffffffffffffffffffffffffffff1673ffffffffffffffffffffffffffffffffffffffff168152602001908152602001600020819055508173ffffffffffffffffffffffffffffffffffffffff168373ffffffffffffffffffffffffffffffffffffffff167f8c5be1e5ebec7d5bd14f71427d1e84f3dd0314c0f7b2291e5b200ac8c7c3b92583604051610d60919061169a565b60405180910390a3505050565b600073ffffffffffffffffffffffffffffffffffffffff168373ffffffffffffffffffffffffffffffffffffffff1603610ddc576040517f08c379a0000000000000000000000000000000000000000000000000000000008152600401610dd390611d19565b60405180910390fd5b600073ffffffffffffffffffffffffffffffffffffffff168273ffffffffffffffffffffffffffffffffffffffff1603610e4b576040517f08c379a0000000000000000000000000000000000000000000000000000000008152600401610e4290611dab565b60405180910390fd5b610e56838383611442565b610ec18160405180606001604052806026815260200161226d602691396000808773ffffffffffffffffffffffffffffffffffffffff1673ffffffffffffffffffffffffffffffffffffffff168152602001908152602001600020546110009092919063ffffffff16565b6000808573ffffffffffffffffffffffffffffffffffffffff1673ffffffffffffffffffffffffffffffffffffffff16815260200190815260200160002081905550610f54816000808573ffffffffffffffffffffffffffffffffffffffff1673ffffffffffffffffffffffffffffffffffffffff1681526020019081526020016000205461106490919063ffffffff16565b6000808473ffffffffffffffffffffffffffffffffffffffff1673ffffffffffffffffffffffffffffffffffffffff168152602001908152602001600020819055508173ffffffffffffffffffffffffffffffffffffffff168373ffffffffffffffffffffffffffffffffffffffff167fddf252ad1be2c89b69c2b068fc378daa952ba7f163c4a11628f55a4df523b3ef83604051610ff3919061169a565b60405180910390a3505050565b6000838311158290611048576040517f08c379a000000000000000000000000000000000000000000000000000000000815260040161103f9190611521565b60405180910390fd5b50600083856110579190611dfa565b9050809150509392505050565b60008082846110739190611e2e565b9050838110156110b8576040517f08c379a00000000000000000000000000000000000000000000000000000000081526004016110af90611eae565b60405180910390fd5b8091505092915050565b600073ffffffffffffffffffffffffffffffffffffffff168273ffffffffffffffffffffffffffffffffffffffff1603611131576040517f08c379a000000000000000000000000000000000000000000000000000000000815260040161112890611f1a565b60405180910390fd5b61113d60008383611442565b6111528160025461106490919063ffffffff16565b6002819055506111a9816000808573ffffffffffffffffffffffffffffffffffffffff1673ffffffffffffffffffffffffffffffffffffffff1681526020019081526020016000205461106490919063ffffffff16565b6000808473ffffffffffffffffffffffffffffffffffffffff1673ffffffffffffffffffffffffffffffffffffffff168152602001908152602001600020819055508173ffffffffffffffffffffffffffffffffffffffff16600073ffffffffffffffffffffffffffffffffffffffff167fddf252ad1be2c89b69c2b068fc378daa952ba7f163c4a11628f55a4df523b3ef83604051611249919061169a565b60405180910390a35050565b600073ffffffffffffffffffffffffffffffffffffffff168273ffffffffffffffffffffffffffffffffffffffff16036112c4576040517f08c379a00000000000000000000000000000000000000000000000000000000081526004016112bb90611fac565b60405180910390fd5b6112d082600083611442565b61133b8160405180606001604052806022815260200161224b602291396000808673ffffffffffffffffffffffffffffffffffffffff1673ffffffffffffffffffffffffffffffffffffffff168152602001908152602001600020546110009092919063ffffffff16565b6000808473ffffffffffffffffffffffffffffffffffffffff1673ffffffffffffffffffffffffffffffffffffffff168152602001908152602001600020819055506113928160025461144790919063ffffffff16565b600281905550600073ffffffffffffffffffffffffffffffffffffffff168273ffffffffffffffffffffffffffffffffffffffff167fddf252ad1be2c89b69c2b068fc378daa952ba7f163c4a11628f55a4df523b3ef836040516113f6919061169a565b60405180910390a35050565b82600390816114119190612178565b5081600490816114219190612178565b5080600560006101000a81548160ff021916908360ff160217905550505050565b505050565b600061148983836040518060400160405280601e81526020017f536166654d6174683a207375627472616374696f6e206f766572666c6f770000815250611000565b905092915050565b600081519050919050565b600082825260208201905092915050565b60005b838110156114cb5780820151818401526020810190506114b0565b60008484015250505050565b6000601f19601f8301169050919050565b60006114f382611491565b6114fd818561149c565b935061150d8185602086016114ad565b611516816114d7565b840191505092915050565b6000602082019050818103600083015261153b81846114e8565b905092915050565b6000604051905090565b600080fd5b600080fd5b600073ffffffffffffffffffffffffffffffffffffffff82169050919050565b600061158282611557565b9050919050565b61159281611577565b811461159d57600080fd5b50565b6000813590506115af81611589565b92915050565b6000819050919050565b6115c8816115b5565b81146115d357600080fd5b50565b6000813590506115e5816115bf565b92915050565b600080604083850312156116025761160161154d565b5b6000611610858286016115a0565b9250506020611621858286016115d6565b9150509250929050565b60008115159050919050565b6116408161162b565b82525050565b600060208201905061165b6000830184611637565b92915050565b61166a81611577565b82525050565b60006020820190506116856000830184611661565b92915050565b611694816115b5565b82525050565b60006020820190506116af600083018461168b565b92915050565b6000806000606084860312156116ce576116cd61154d565b5b60006116dc868287016115a0565b93505060206116ed868287016115a0565b92505060406116fe868287016115d6565b9150509250925092565b600060ff82169050919050565b61171e81611708565b82525050565b60006020820190506117396000830184611715565b92915050565b6000602082840312156117555761175461154d565b5b6000611763848285016115a0565b91505092915050565b600080fd5b600080fd5b7f4e487b7100000000000000000000000000000000000000000000000000000000600052604160045260246000fd5b6117ae826114d7565b810181811067ffffffffffffffff821117156117cd576117cc611776565b5b80604052505050565b60006117e0611543565b90506117ec82826117a5565b919050565b600067ffffffffffffffff82111561180c5761180b611776565b5b611815826114d7565b9050602081019050919050565b82818337600083830152505050565b600061184461183f846117f1565b6117d6565b9050828152602081018484840111156118605761185f611771565b5b61186b848285611822565b509392505050565b600082601f8301126118885761188761176c565b5b8135611898848260208601611831565b91505092915050565b6118aa81611708565b81146118b557600080fd5b50565b6000813590506118c7816118a1565b92915050565b600080600080600060a086880312156118e9576118e861154d565b5b60006118f7888289016115a0565b9550506020611908888289016115a0565b945050604086013567ffffffffffffffff81111561192957611928611552565b5b61193588828901611873565b935050606086013567ffffffffffffffff81111561195657611955611552565b5b61196288828901611873565b9250506080611973888289016118b8565b9150509295509295909350565b6000806000606084860312156119995761199861154d565b5b600084013567ffffffffffffffff8111156119b7576119b6611552565b5b6119c386828701611873565b935050602084013567ffffffffffffffff8111156119e4576119e3611552565b5b6119f086828701611873565b9250506040611a01868287016118b8565b9150509250925092565b60008060408385031215611a2257611a2161154d565b5b6000611a30858286016115a0565b9250506020611a41858286016115a0565b9150509250929050565b7f4e487b7100000000000000000000000000000000000000000000000000000000600052602260045260246000fd5b60006002820490506001821680611a9257607f821691505b602082108103611aa557611aa4611a4b565b5b50919050565b7f496e76616c69642073656e646572000000000000000000000000000000000000600082015250565b6000611ae1600e8361149c565b9150611aec82611aab565b602082019050919050565b60006020820190508181036000830152611b1081611ad4565b9050919050565b7f546f6b656e20697320616c726561647920696e697469616c697a656400000000600082015250565b6000611b4d601c8361149c565b9150611b5882611b17565b602082019050919050565b60006020820190508181036000830152611b7c81611b40565b9050919050565b7f45524332303a20617070726f76652066726f6d20746865207a65726f2061646460008201527f7265737300000000000000000000000000000000000000000000000000000000602082015250565b6000611bdf60248361149c565b9150611bea82611b83565b604082019050919050565b60006020820190508181036000830152611c0e81611bd2565b9050919050565b7f45524332303a20617070726f766520746f20746865207a65726f20616464726560008201527f7373000000000000000000000000000000000000000000000000000000000000602082015250565b6000611c7160228361149c565b9150611c7c82611c15565b604082019050919050565b60006020820190508181036000830152611ca081611c64565b9050919050565b7f45524332303a207472616e736665722066726f6d20746865207a65726f20616460008201527f6472657373000000000000000000000000000000000000000000000000000000602082015250565b6000611d0360258361149c565b9150611d0e82611ca7565b604082019050919050565b60006020820190508181036000830152611d3281611cf6565b9050919050565b7f45524332303a207472616e7366657220746f20746865207a65726f206164647260008201527f6573730000000000000000000000000000000000000000000000000000000000602082015250565b6000611d9560238361149c565b9150611da082611d39565b604082019050919050565b60006020820190508181036000830152611dc481611d88565b9050919050565b7f4e487b7100000000000000000000000000000000000000000000000000000000600052601160045260246000fd5b6000611e05826115b5565b9150611e10836115b5565b9250828203905081811115611e2857611e27611dcb565b5b92915050565b6000611e39826115b5565b9150611e44836115b5565b9250828201905080821115611e5c57611e5b611dcb565b5b92915050565b7f536166654d6174683a206164646974696f6e206f766572666c6f770000000000600082015250565b6000611e98601b8361149c565b9150611ea382611e62565b602082019050919050565b60006020820190508181036000830152611ec781611e8b565b9050919050565b7f45524332303a206d696e7420746f20746865207a65726f206164647265737300600082015250565b6000611f04601f8361149c565b9150611f0f82611ece565b602082019050919050565b60006020820190508181036000830152611f3381611ef7565b9050919050565b7f45524332303a206275726e2066726f6d20746865207a65726f2061646472657360008201527f7300000000000000000000000000000000000000000000000000000000000000602082015250565b6000611f9660218361149c565b9150611fa182611f3a565b604082019050919050565b60006020820190508181036000830152611fc581611f89565b9050919050565b60008190508160005260206000209050919050565b60006020601f8301049050919050565b600082821b905092915050565b60006008830261202e7fffffffffffffffffffffffffffffffffffffffffffffffffffffffffffffffff82611ff1565b6120388683611ff1565b95508019841693508086168417925050509392505050565b6000819050919050565b600061207561207061206b846115b5565b612050565b6115b5565b9050919050565b6000819050919050565b61208f8361205a565b6120a361209b8261207c565b848454611ffe565b825550505050565b600090565b6120b86120ab565b6120c3818484612086565b505050565b5b818110156120e7576120dc6000826120b0565b6001810190506120c9565b5050565b601f82111561212c576120fd81611fcc565b61210684611fe1565b81016020851015612115578190505b61212961212185611fe1565b8301826120c8565b50505b505050565b600082821c905092915050565b600061214f60001984600802612131565b1980831691505092915050565b6000612168838361213e565b9150826002028217905092915050565b61218182611491565b67ffffffffffffffff81111561219a57612199611776565b5b6121a48254611a7a565b6121af8282856120eb565b600060209050601f8311600181146121e257600084156121d0578287015190505b6121da858261215c565b865550612242565b601f1984166121f086611fcc565b60005b82811015612218578489015182556001820191506020850194506020810190506121f3565b868310156122355784890151612231601f89168261213e565b8355505b6001600288020188555050505b50505050505056fe45524332303a206275726e20616d6f756e7420657863656564732062616c616e636545524332303a207472616e7366657220616d6f756e7420657863656564732062616c616e636545524332303a207472616e7366657220616d6f756e74206578636565647320616c6c6f77616e636545524332303a2064656372656173656420616c6c6f77616e63652062656c6f77207a65726fa2646970667358221220f41db1c166c7744cecc717618777085cffe16e2a7dd486801a72ea1935065ab464736f6c63430008110033",
  "immutableReferences": {},
  "source": "// SPDX-License-Identifier: MIT\npragma solidity ^0.8.0;\n\nimport {ERC20} from '@maticnetwork/fx-portal/contracts/lib/ERC20.sol';\nimport {IFxERC20} from '@maticnetwork/fx-portal/contracts/tokens/IFxERC20.sol';\n\n/**\n * @title FxERC20 represents fx erc20\n */\ncontract FxERC20 is IFxERC20, ERC20 {\n    address internal _fxManager;\n    address internal _connectedToken;\n\n    function initialize(\n        address fxManager_,\n        address connectedToken_,\n        string memory name_,\n        string memory symbol_,\n        uint8 decimals_\n    ) public override {\n        require(\n            _fxManager == address(0x0) && _connectedToken == address(0x0),\n            'Token is already initialized'\n        );\n        _fxManager = fxManager_;\n        _connectedToken = connectedToken_;\n\n        // setup meta data\n        setupMetaData(name_, symbol_, decimals_);\n    }\n\n    // fxManager returns fx manager\n    function fxManager() public view override returns (address) {\n        return _fxManager;\n    }\n\n    // connectedToken returns root token\n    function connectedToken() public view override returns (address) {\n        return _connectedToken;\n    }\n\n    // setup name, symbol and decimals\n    function setupMetaData(\n        string memory _name,\n        string memory _symbol,\n        uint8 _decimals\n    ) public {\n        require(msg.sender == _fxManager, 'Invalid sender');\n        _setupMetaData(_name, _symbol, _decimals);\n    }\n\n    function mint(address user, uint256 amount) public override {\n        require(msg.sender == _fxManager, 'Invalid sender');\n        _mint(user, amount);\n    }\n\n    function burn(address user, uint256 amount) public override {\n        require(msg.sender == _fxManager, 'Invalid sender');\n        _burn(user, amount);\n    }\n}\n",
  "sourcePath": "/Users/gregorycorin/Desktop/Vetri_dev/Bridge/fx-portal-permit/contracts/fxERC20.sol",
  "compiler": {
    "name": "solc",
    "version": "0.8.17+commit.8df45f5f.Emscripten.clang"
  },
  "schemaVersion": "3.4.10",
  "updatedAt": "2023-02-28T01:04:28.530Z",
  "devdoc": {
    "kind": "dev",
    "methods": {
      "allowance(address,address)": {
        "details": "See {IERC20-allowance}."
      },
      "approve(address,uint256)": {
        "details": "See {IERC20-approve}. Requirements: - `spender` cannot be the zero address."
      },
      "balanceOf(address)": {
        "details": "See {IERC20-balanceOf}."
      },
      "decimals()": {
        "details": "Returns the number of decimals used to get its user representation. For example, if `decimals` equals `2`, a balance of `505` tokens should be displayed to a user as `5,05` (`505 / 10 ** 2`). Tokens usually opt for a value of 18, imitating the relationship between Ether and Wei. This is the value {ERC20} uses, unless {_setupDecimals} is called. NOTE: This information is only used for _display_ purposes: it in no way affects any of the arithmetic of the contract, including {IERC20-balanceOf} and {IERC20-transfer}."
      },
      "decreaseAllowance(address,uint256)": {
        "details": "Atomically decreases the allowance granted to `spender` by the caller. This is an alternative to {approve} that can be used as a mitigation for problems described in {IERC20-approve}. Emits an {Approval} event indicating the updated allowance. Requirements: - `spender` cannot be the zero address. - `spender` must have allowance for the caller of at least `subtractedValue`."
      },
      "increaseAllowance(address,uint256)": {
        "details": "Atomically increases the allowance granted to `spender` by the caller. This is an alternative to {approve} that can be used as a mitigation for problems described in {IERC20-approve}. Emits an {Approval} event indicating the updated allowance. Requirements: - `spender` cannot be the zero address."
      },
      "name()": {
        "details": "Returns the name of the token."
      },
      "symbol()": {
        "details": "Returns the symbol of the token, usually a shorter version of the name."
      },
      "totalSupply()": {
        "details": "See {IERC20-totalSupply}."
      },
      "transfer(address,uint256)": {
        "details": "See {IERC20-transfer}. Requirements: - `recipient` cannot be the zero address. - the caller must have a balance of at least `amount`."
      },
      "transferFrom(address,address,uint256)": {
        "details": "See {IERC20-transferFrom}. Emits an {Approval} event indicating the updated allowance. This is not required by the EIP. See the note at the beginning of {ERC20}. Requirements: - `sender` and `recipient` cannot be the zero address. - `sender` must have a balance of at least `amount`. - the caller must have allowance for ``sender``'s tokens of at least `amount`."
      }
    },
    "title": "FxERC20 represents fx erc20",
    "version": 1
  },
  "userdoc": {
    "kind": "user",
    "methods": {},
    "version": 1
  }
}