{
  "contractName": "FxERC20ChildTunnel",
  "abi": [
    {
      "inputs": [
        {
          "internalType": "address",
          "name": "_fxChild",
          "type": "address"
        },
        {
          "internalType": "address",
          "name": "_tokenTemplate",
          "type": "address"
        }
      ],
      "stateMutability": "nonpayable",
      "type": "constructor"
    },
    {
      "anonymous": false,
      "inputs": [
        {
          "indexed": false,
          "internalType": "bytes",
          "name": "message",
          "type": "bytes"
        }
      ],
      "name": "MessageSent",
      "type": "event"
    },
    {
      "anonymous": false,
      "inputs": [
        {
          "indexed": true,
          "internalType": "address",
          "name": "rootToken",
          "type": "address"
        },
        {
          "indexed": true,
          "internalType": "address",
          "name": "childToken",
          "type": "address"
        }
      ],
      "name": "TokenMapped",
      "type": "event"
    },
    {
      "inputs": [],
      "name": "DEPOSIT",
      "outputs": [
        {
          "internalType": "bytes32",
          "name": "",
          "type": "bytes32"
        }
      ],
      "stateMutability": "view",
      "type": "function",
      "constant": true
    },
    {
      "inputs": [],
      "name": "MAP_TOKEN",
      "outputs": [
        {
          "internalType": "bytes32",
          "name": "",
          "type": "bytes32"
        }
      ],
      "stateMutability": "view",
      "type": "function",
      "constant": true
    },
    {
      "inputs": [],
      "name": "PREFIX_SYMBOL",
      "outputs": [
        {
          "internalType": "string",
          "name": "",
          "type": "string"
        }
      ],
      "stateMutability": "view",
      "type": "function",
      "constant": true
    },
    {
      "inputs": [],
      "name": "SUFFIX_NAME",
      "outputs": [
        {
          "internalType": "string",
          "name": "",
          "type": "string"
        }
      ],
      "stateMutability": "view",
      "type": "function",
      "constant": true
    },
    {
      "inputs": [
        {
          "internalType": "bytes32",
          "name": "salt",
          "type": "bytes32"
        },
        {
          "internalType": "bytes32",
          "name": "bytecodeHash",
          "type": "bytes32"
        },
        {
          "internalType": "address",
          "name": "deployer",
          "type": "address"
        }
      ],
      "name": "computedCreate2Address",
      "outputs": [
        {
          "internalType": "address",
          "name": "",
          "type": "address"
        }
      ],
      "stateMutability": "pure",
      "type": "function",
      "constant": true
    },
    {
      "inputs": [],
      "name": "fxChild",
      "outputs": [
        {
          "internalType": "address",
          "name": "",
          "type": "address"
        }
      ],
      "stateMutability": "view",
      "type": "function",
      "constant": true
    },
    {
      "inputs": [],
      "name": "fxRootTunnel",
      "outputs": [
        {
          "internalType": "address",
          "name": "",
          "type": "address"
        }
      ],
      "stateMutability": "view",
      "type": "function",
      "constant": true
    },
    {
      "inputs": [
        {
          "internalType": "uint256",
          "name": "stateId",
          "type": "uint256"
        },
        {
          "internalType": "address",
          "name": "rootMessageSender",
          "type": "address"
        },
        {
          "internalType": "bytes",
          "name": "data",
          "type": "bytes"
        }
      ],
      "name": "processMessageFromRoot",
      "outputs": [],
      "stateMutability": "nonpayable",
      "type": "function"
    },
    {
      "inputs": [
        {
          "internalType": "address",
          "name": "",
          "type": "address"
        }
      ],
      "name": "rootToChildToken",
      "outputs": [
        {
          "internalType": "address",
          "name": "",
          "type": "address"
        }
      ],
      "stateMutability": "view",
      "type": "function",
      "constant": true
    },
    {
      "inputs": [
        {
          "internalType": "address",
          "name": "_fxRootTunnel",
          "type": "address"
        }
      ],
      "name": "setFxRootTunnel",
      "outputs": [],
      "stateMutability": "nonpayable",
      "type": "function"
    },
    {
      "inputs": [],
      "name": "tokenTemplate",
      "outputs": [
        {
          "internalType": "address",
          "name": "",
          "type": "address"
        }
      ],
      "stateMutability": "view",
      "type": "function",
      "constant": true
    },
    {
      "inputs": [
        {
          "internalType": "address",
          "name": "childToken",
          "type": "address"
        },
        {
          "internalType": "uint256",
          "name": "amount",
          "type": "uint256"
        }
      ],
      "name": "withdraw",
      "outputs": [],
      "stateMutability": "nonpayable",
      "type": "function"
    },
    {
      "inputs": [
        {
          "internalType": "address",
          "name": "childToken",
          "type": "address"
        },
        {
          "internalType": "address",
          "name": "receiver",
          "type": "address"
        },
        {
          "internalType": "uint256",
          "name": "amount",
          "type": "uint256"
        }
      ],
      "name": "withdrawTo",
      "outputs": [],
      "stateMutability": "nonpayable",
      "type": "function"
    }
  ],
  "bytecode": "0x60a06040523480156200001157600080fd5b50604051620021ee380380620021ee83398181016040528101906200003791906200018b565b81806000806101000a81548173ffffffffffffffffffffffffffffffffffffffff021916908373ffffffffffffffffffffffffffffffffffffffff160217905550508073ffffffffffffffffffffffffffffffffffffffff1660808173ffffffffffffffffffffffffffffffffffffffff1681525050620000be816200010860201b60201c565b62000100576040517f08c379a0000000000000000000000000000000000000000000000000000000008152600401620000f79062000233565b60405180910390fd5b505062000255565b600080823b905060008163ffffffff1611915050919050565b600080fd5b600073ffffffffffffffffffffffffffffffffffffffff82169050919050565b6000620001538262000126565b9050919050565b620001658162000146565b81146200017157600080fd5b50565b60008151905062000185816200015a565b92915050565b60008060408385031215620001a557620001a462000121565b5b6000620001b58582860162000174565b9250506020620001c88582860162000174565b9150509250929050565b600082825260208201905092915050565b7f546f6b656e2074656d706c617465206973206e6f7420636f6e74726163740000600082015250565b60006200021b601e83620001d2565b91506200022882620001e3565b602082019050919050565b600060208201905081810360008301526200024e816200020c565b9050919050565b608051611f7662000278600039600081816102780152610c970152611f766000f3fe608060405234801561001057600080fd5b50600436106100cf5760003560e01c8063886a69ba1161008c578063c3b35a7e11610066578063c3b35a7e146101f0578063d81c8e521461020c578063ea60c7c41461022a578063f3fef3a31461025a576100cf565b8063886a69ba1461019a57806388837094146101b85780639a7c4b71146101d4576100cf565b80630814d3dd146100d45780633740d5a0146100f257806339c6c9e014610110578063450d11f01461012e5780637337957f1461014c5780637f1e9cb01461017c575b600080fd5b6100dc610276565b6040516100e99190611031565b60405180910390f35b6100fa61029a565b60405161010791906110dc565b60405180910390f35b6101186102d3565b60405161012591906110dc565b60405180910390f35b61013661030c565b6040516101439190611031565b60405180910390f35b61016660048036038101906101619190611174565b610330565b6040516101739190611031565b60405180910390f35b610184610374565b6040516101919190611031565b60405180910390f35b6101a261039a565b6040516101af91906111d6565b60405180910390f35b6101d260048036038101906101cd91906111f1565b6103be565b005b6101ee60048036038101906101e991906112b9565b610493565b005b61020a6004803603810190610205919061132d565b610576565b005b610214610586565b60405161022191906111d6565b60405180910390f35b610244600480360381019061023f91906111f1565b6105aa565b6040516102519190611031565b60405180910390f35b610274600480360381019061026f9190611380565b6105dd565b005b7f000000000000000000000000000000000000000000000000000000000000000081565b6040518060400160405280600281526020017f667800000000000000000000000000000000000000000000000000000000000081525081565b6040518060400160405280600a81526020017f202846584552433230290000000000000000000000000000000000000000000081525081565b60008054906101000a900473ffffffffffffffffffffffffffffffffffffffff1681565b60008060ff60f81b83868660405160200161034e9493929190611476565b6040516020818303038152906040528051906020012090508060001c9150509392505050565b600160009054906101000a900473ffffffffffffffffffffffffffffffffffffffff1681565b7f2cef46a936bdc5b7e6e8c71aa04560c41cf7d88bb26901a7e7f4936ff02accad81565b600073ffffffffffffffffffffffffffffffffffffffff16600160009054906101000a900473ffffffffffffffffffffffffffffffffffffffff1673ffffffffffffffffffffffffffffffffffffffff161461044f576040517f08c379a000000000000000000000000000000000000000000000000000000000815260040161044690611536565b60405180910390fd5b80600160006101000a81548173ffffffffffffffffffffffffffffffffffffffff021916908373ffffffffffffffffffffffffffffffffffffffff16021790555050565b60008054906101000a900473ffffffffffffffffffffffffffffffffffffffff1673ffffffffffffffffffffffffffffffffffffffff163373ffffffffffffffffffffffffffffffffffffffff1614610521576040517f08c379a0000000000000000000000000000000000000000000000000000000008152600401610518906115c8565b60405180910390fd5b610570848484848080601f016020809104026020016040519081016040528093929190818152602001838380828437600081840152601f19601f820116905080830192505050505050506105ec565b50505050565b610581838383610747565b505050565b7f87a7811f4bfedea3d341ad165680ae306b01aaeacc205d227629cf157dd9f82181565b60026020528060005260406000206000915054906101000a900473ffffffffffffffffffffffffffffffffffffffff1681565b6105e8823383610747565b5050565b81600160009054906101000a900473ffffffffffffffffffffffffffffffffffffffff1673ffffffffffffffffffffffffffffffffffffffff168173ffffffffffffffffffffffffffffffffffffffff161461067d576040517f08c379a00000000000000000000000000000000000000000000000000000000081526004016106749061165a565b60405180910390fd5b6000808380602001905181019061069491906117b0565b915091507f87a7811f4bfedea3d341ad165680ae306b01aaeacc205d227629cf157dd9f82182036106cd576106c8816109a2565b61073f565b7f2cef46a936bdc5b7e6e8c71aa04560c41cf7d88bb26901a7e7f4936ff02accad8203610703576106fd81610b6f565b5061073e565b6040517f08c379a00000000000000000000000000000000000000000000000000000000081526004016107359061187e565b60405180910390fd5b5b505050505050565b600083905060008173ffffffffffffffffffffffffffffffffffffffff16630a8a49146040518163ffffffff1660e01b81526004016020604051808303816000875af115801561079b573d6000803e3d6000fd5b505050506040513d601f19601f820116820180604052508101906107bf91906118b3565b9050600073ffffffffffffffffffffffffffffffffffffffff168573ffffffffffffffffffffffffffffffffffffffff161415801561082b5750600073ffffffffffffffffffffffffffffffffffffffff168173ffffffffffffffffffffffffffffffffffffffff1614155b80156108c15750600260008273ffffffffffffffffffffffffffffffffffffffff1673ffffffffffffffffffffffffffffffffffffffff16815260200190815260200160002060009054906101000a900473ffffffffffffffffffffffffffffffffffffffff1673ffffffffffffffffffffffffffffffffffffffff168573ffffffffffffffffffffffffffffffffffffffff16145b610900576040517f08c379a00000000000000000000000000000000000000000000000000000000081526004016108f790611952565b60405180910390fd5b8173ffffffffffffffffffffffffffffffffffffffff16639dc29fac33856040518363ffffffff1660e01b815260040161093b929190611981565b600060405180830381600087803b15801561095557600080fd5b505af1158015610969573d6000803e3d6000fd5b5050505061099b8186868660405160200161098794939291906119aa565b604051602081830303815290604052610ec2565b5050505050565b6000806000806000858060200190518101906109be9190611a42565b945094509450945094506000600260008773ffffffffffffffffffffffffffffffffffffffff1673ffffffffffffffffffffffffffffffffffffffff16815260200190815260200160002060009054906101000a900473ffffffffffffffffffffffffffffffffffffffff16905060008190508073ffffffffffffffffffffffffffffffffffffffff166340c10f1986866040518363ffffffff1660e01b8152600401610a6c929190611981565b600060405180830381600087803b158015610a8657600080fd5b505af1158015610a9a573d6000803e3d6000fd5b50505050610aa785610efc565b15610b65576000621e8480905060008089858a8a8a8a604051602401610ad296959493929190611b2e565b6040516020818303038152906040527f166480c2000000000000000000000000000000000000000000000000000000007bffffffffffffffffffffffffffffffffffffffffffffffffffffffff19166020820180517bffffffffffffffffffffffffffffffffffffffffffffffffffffffff8381831617835250505050905060008082516020840160008c88f191505050505b5050505050505050565b600080600080600085806020019051810190610b8b9190611c70565b93509350935093506000600260008673ffffffffffffffffffffffffffffffffffffffff1673ffffffffffffffffffffffffffffffffffffffff16815260200190815260200160002060009054906101000a900473ffffffffffffffffffffffffffffffffffffffff169050600073ffffffffffffffffffffffffffffffffffffffff168173ffffffffffffffffffffffffffffffffffffffff1614610c66576040517f08c379a0000000000000000000000000000000000000000000000000000000008152600401610c5d90611d81565b60405180910390fd5b600085604051602001610c799190611da1565b604051602081830303815290604052805190602001209050610cbb817f0000000000000000000000000000000000000000000000000000000000000000610f15565b91508173ffffffffffffffffffffffffffffffffffffffff16638420ce993088886040518060400160405280600a81526020017f2028465845524332302900000000000000000000000000000000000000000000815250604051602001610d23929190611df8565b6040516020818303038152906040526040518060400160405280600281526020017f667800000000000000000000000000000000000000000000000000000000000081525089604051602001610d7a929190611df8565b604051602081830303815290604052886040518663ffffffff1660e01b8152600401610daa959493929190611e2b565b600060405180830381600087803b158015610dc457600080fd5b505af1158015610dd8573d6000803e3d6000fd5b5050505081600260008873ffffffffffffffffffffffffffffffffffffffff1673ffffffffffffffffffffffffffffffffffffffff16815260200190815260200160002060006101000a81548173ffffffffffffffffffffffffffffffffffffffff021916908373ffffffffffffffffffffffffffffffffffffffff1602179055508173ffffffffffffffffffffffffffffffffffffffff168673ffffffffffffffffffffffffffffffffffffffff167f85920d35e6c72f6b2affffa04298b0cecfeba86e4a9f407df661f1cb8ab5e61760405160405180910390a3819650505050505050919050565b7f8c5261668696ce22758910d05bab8f186d6eb247ceac2af2e82c7dc17669b03681604051610ef19190611e8c565b60405180910390a150565b600080823b905060008163ffffffff1611915050919050565b6000808260601b90506040517f3d602d80600a3d3981f3363d3d373d3d3d363d7300000000000000000000000081528160148201527f5af43d82803e903d91602b57fd5bf300000000000000000000000000000000006028820152846037826000f5925050600073ffffffffffffffffffffffffffffffffffffffff168273ffffffffffffffffffffffffffffffffffffffff1603610fe9576040517f08c379a0000000000000000000000000000000000000000000000000000000008152600401610fe090611f20565b60405180910390fd5b5092915050565b600073ffffffffffffffffffffffffffffffffffffffff82169050919050565b600061101b82610ff0565b9050919050565b61102b81611010565b82525050565b60006020820190506110466000830184611022565b92915050565b600081519050919050565b600082825260208201905092915050565b60005b8381101561108657808201518184015260208101905061106b565b60008484015250505050565b6000601f19601f8301169050919050565b60006110ae8261104c565b6110b88185611057565b93506110c8818560208601611068565b6110d181611092565b840191505092915050565b600060208201905081810360008301526110f681846110a3565b905092915050565b6000604051905090565b600080fd5b600080fd5b6000819050919050565b61112581611112565b811461113057600080fd5b50565b6000813590506111428161111c565b92915050565b61115181611010565b811461115c57600080fd5b50565b60008135905061116e81611148565b92915050565b60008060006060848603121561118d5761118c611108565b5b600061119b86828701611133565b93505060206111ac86828701611133565b92505060406111bd8682870161115f565b9150509250925092565b6111d081611112565b82525050565b60006020820190506111eb60008301846111c7565b92915050565b60006020828403121561120757611206611108565b5b60006112158482850161115f565b91505092915050565b6000819050919050565b6112318161121e565b811461123c57600080fd5b50565b60008135905061124e81611228565b92915050565b600080fd5b600080fd5b600080fd5b60008083601f84011261127957611278611254565b5b8235905067ffffffffffffffff81111561129657611295611259565b5b6020830191508360018202830111156112b2576112b161125e565b5b9250929050565b600080600080606085870312156112d3576112d2611108565b5b60006112e18782880161123f565b94505060206112f28782880161115f565b935050604085013567ffffffffffffffff8111156113135761131261110d565b5b61131f87828801611263565b925092505092959194509250565b60008060006060848603121561134657611345611108565b5b60006113548682870161115f565b93505060206113658682870161115f565b92505060406113768682870161123f565b9150509250925092565b6000806040838503121561139757611396611108565b5b60006113a58582860161115f565b92505060206113b68582860161123f565b9150509250929050565b60007fff0000000000000000000000000000000000000000000000000000000000000082169050919050565b6000819050919050565b611407611402826113c0565b6113ec565b82525050565b60008160601b9050919050565b60006114258261140d565b9050919050565b60006114378261141a565b9050919050565b61144f61144a82611010565b61142c565b82525050565b6000819050919050565b61147061146b82611112565b611455565b82525050565b600061148282876113f6565b600182019150611492828661143e565b6014820191506114a2828561145f565b6020820191506114b2828461145f565b60208201915081905095945050505050565b7f4678426173654368696c6454756e6e656c3a20524f4f545f54554e4e454c5f4160008201527f4c52454144595f53455400000000000000000000000000000000000000000000602082015250565b6000611520602a83611057565b915061152b826114c4565b604082019050919050565b6000602082019050818103600083015261154f81611513565b9050919050565b7f4678426173654368696c6454756e6e656c3a20494e56414c49445f53454e444560008201527f5200000000000000000000000000000000000000000000000000000000000000602082015250565b60006115b2602183611057565b91506115bd82611556565b604082019050919050565b600060208201905081810360008301526115e1816115a5565b9050919050565b7f4678426173654368696c6454756e6e656c3a20494e56414c49445f53454e444560008201527f525f46524f4d5f524f4f54000000000000000000000000000000000000000000602082015250565b6000611644602b83611057565b915061164f826115e8565b604082019050919050565b6000602082019050818103600083015261167381611637565b9050919050565b6000815190506116898161111c565b92915050565b600080fd5b7f4e487b7100000000000000000000000000000000000000000000000000000000600052604160045260246000fd5b6116cc82611092565b810181811067ffffffffffffffff821117156116eb576116ea611694565b5b80604052505050565b60006116fe6110fe565b905061170a82826116c3565b919050565b600067ffffffffffffffff82111561172a57611729611694565b5b61173382611092565b9050602081019050919050565b600061175361174e8461170f565b6116f4565b90508281526020810184848401111561176f5761176e61168f565b5b61177a848285611068565b509392505050565b600082601f83011261179757611796611254565b5b81516117a7848260208601611740565b91505092915050565b600080604083850312156117c7576117c6611108565b5b60006117d58582860161167a565b925050602083015167ffffffffffffffff8111156117f6576117f561110d565b5b61180285828601611782565b9150509250929050565b7f467845524332304368696c6454756e6e656c3a20494e56414c49445f53594e4360008201527f5f54595045000000000000000000000000000000000000000000000000000000602082015250565b6000611868602583611057565b91506118738261180c565b604082019050919050565b600060208201905081810360008301526118978161185b565b9050919050565b6000815190506118ad81611148565b92915050565b6000602082840312156118c9576118c8611108565b5b60006118d78482850161189e565b91505092915050565b7f467845524332304368696c6454756e6e656c3a204e4f5f4d41505045445f544f60008201527f4b454e0000000000000000000000000000000000000000000000000000000000602082015250565b600061193c602383611057565b9150611947826118e0565b604082019050919050565b6000602082019050818103600083015261196b8161192f565b9050919050565b61197b8161121e565b82525050565b60006040820190506119966000830185611022565b6119a36020830184611972565b9392505050565b60006080820190506119bf6000830187611022565b6119cc6020830186611022565b6119d96040830185611022565b6119e66060830184611972565b95945050505050565b60006119fa82610ff0565b9050919050565b611a0a816119ef565b8114611a1557600080fd5b50565b600081519050611a2781611a01565b92915050565b600081519050611a3c81611228565b92915050565b600080600080600060a08688031215611a5e57611a5d611108565b5b6000611a6c88828901611a18565b9550506020611a7d88828901611a18565b9450506040611a8e88828901611a18565b9350506060611a9f88828901611a2d565b925050608086015167ffffffffffffffff811115611ac057611abf61110d565b5b611acc88828901611782565b9150509295509295909350565b600081519050919050565b600082825260208201905092915050565b6000611b0082611ad9565b611b0a8185611ae4565b9350611b1a818560208601611068565b611b2381611092565b840191505092915050565b600060c082019050611b436000830189611022565b611b506020830188611022565b611b5d6040830187611022565b611b6a6060830186611022565b611b776080830185611972565b81810360a0830152611b898184611af5565b9050979650505050505050565b600067ffffffffffffffff821115611bb157611bb0611694565b5b611bba82611092565b9050602081019050919050565b6000611bda611bd584611b96565b6116f4565b905082815260208101848484011115611bf657611bf561168f565b5b611c01848285611068565b509392505050565b600082601f830112611c1e57611c1d611254565b5b8151611c2e848260208601611bc7565b91505092915050565b600060ff82169050919050565b611c4d81611c37565b8114611c5857600080fd5b50565b600081519050611c6a81611c44565b92915050565b60008060008060808587031215611c8a57611c89611108565b5b6000611c9887828801611a18565b945050602085015167ffffffffffffffff811115611cb957611cb861110d565b5b611cc587828801611c09565b935050604085015167ffffffffffffffff811115611ce657611ce561110d565b5b611cf287828801611c09565b9250506060611d0387828801611c5b565b91505092959194509250565b7f467845524332304368696c6454756e6e656c3a20414c52454144595f4d41505060008201527f4544000000000000000000000000000000000000000000000000000000000000602082015250565b6000611d6b602283611057565b9150611d7682611d0f565b604082019050919050565b60006020820190508181036000830152611d9a81611d5e565b9050919050565b6000611dad828461143e565b60148201915081905092915050565b600081905092915050565b6000611dd28261104c565b611ddc8185611dbc565b9350611dec818560208601611068565b80840191505092915050565b6000611e048285611dc7565b9150611e108284611dc7565b91508190509392505050565b611e2581611c37565b82525050565b600060a082019050611e406000830188611022565b611e4d6020830187611022565b8181036040830152611e5f81866110a3565b90508181036060830152611e7381856110a3565b9050611e826080830184611e1c565b9695505050505050565b60006020820190508181036000830152611ea68184611af5565b905092915050565b7f437265617465323a204661696c6564206f6e206d696e696d616c206465706c6f60008201527f7900000000000000000000000000000000000000000000000000000000000000602082015250565b6000611f0a602183611057565b9150611f1582611eae565b604082019050919050565b60006020820190508181036000830152611f3981611efd565b905091905056fea26469706673582212201491450d655ea689d4bf36fb999a4dbeb01348f61a32c3d510943ca9394ee98964736f6c63430008110033",
  "immutableReferences": {
    "379": [
      {
        "length": 32,
        "start": 632
      },
      {
        "length": 32,
        "start": 3223
      }
    ]
  },
  "source": "// SPDX-License-Identifier: MIT\npragma solidity ^0.8.0;\n\nimport {FxBaseChildTunnel} from '@maticnetwork/fx-portal/contracts/tunnel/FxBaseChildTunnel.sol';\nimport {Create2} from '@maticnetwork/fx-portal/contracts/lib/Create2.sol';\nimport {IFxERC20} from '@maticnetwork/fx-portal/contracts/tokens/IFxERC20.sol';\n\n/**\n * @title FxERC20ChildTunnel\n */\ncontract FxERC20ChildTunnel is FxBaseChildTunnel, Create2 {\n    bytes32 public constant DEPOSIT = keccak256('DEPOSIT');\n    bytes32 public constant MAP_TOKEN = keccak256('MAP_TOKEN');\n    string public constant SUFFIX_NAME = ' (FXERC20)';\n    string public constant PREFIX_SYMBOL = 'fx';\n\n    // event for token mapping\n    event TokenMapped(address indexed rootToken, address indexed childToken);\n    // root to child token\n    mapping(address => address) public rootToChildToken;\n    // token template\n    address public immutable tokenTemplate;\n\n    constructor(address _fxChild, address _tokenTemplate)\n        FxBaseChildTunnel(_fxChild)\n    {\n        tokenTemplate = _tokenTemplate;\n        require(_isContract(_tokenTemplate), 'Token template is not contract');\n    }\n\n    function withdraw(address childToken, uint256 amount) public {\n        _withdraw(childToken, msg.sender, amount);\n    }\n\n    function withdrawTo(\n        address childToken,\n        address receiver,\n        uint256 amount\n    ) public {\n        _withdraw(childToken, receiver, amount);\n    }\n\n    //\n    // Internal methods\n    //\n\n    function _processMessageFromRoot(\n        uint256, /* stateId */\n        address sender,\n        bytes memory data\n    ) internal override validateSender(sender) {\n        // decode incoming data\n        (bytes32 syncType, bytes memory syncData) = abi.decode(\n            data,\n            (bytes32, bytes)\n        );\n\n        if (syncType == DEPOSIT) {\n            _syncDeposit(syncData);\n        } else if (syncType == MAP_TOKEN) {\n            _mapToken(syncData);\n        } else {\n            revert('FxERC20ChildTunnel: INVALID_SYNC_TYPE');\n        }\n    }\n\n    function _mapToken(bytes memory syncData) internal returns (address) {\n        (\n            address rootToken,\n            string memory name,\n            string memory symbol,\n            uint8 decimals\n        ) = abi.decode(syncData, (address, string, string, uint8));\n\n        // get root to child token\n        address childToken = rootToChildToken[rootToken];\n\n        // check if it's already mapped\n        require(\n            childToken == address(0x0),\n            'FxERC20ChildTunnel: ALREADY_MAPPED'\n        );\n\n        // deploy new child token\n        bytes32 salt = keccak256(abi.encodePacked(rootToken));\n        childToken = createClone(salt, tokenTemplate);\n        IFxERC20(childToken).initialize(\n            address(this),\n            rootToken,\n            string(abi.encodePacked(name, SUFFIX_NAME)),\n            string(abi.encodePacked(PREFIX_SYMBOL, symbol)),\n            decimals\n        );\n\n        // map the token\n        rootToChildToken[rootToken] = childToken;\n        emit TokenMapped(rootToken, childToken);\n\n        // return new child token\n        return childToken;\n    }\n\n    function _syncDeposit(bytes memory syncData) internal {\n        (\n            address rootToken,\n            address depositor,\n            address to,\n            uint256 amount,\n            bytes memory depositData\n        ) = abi.decode(syncData, (address, address, address, uint256, bytes));\n        address childToken = rootToChildToken[rootToken];\n\n        // deposit tokens\n        IFxERC20 childTokenContract = IFxERC20(childToken);\n        childTokenContract.mint(to, amount);\n\n        // call onTokenTransfer() on `to` with limit and ignore error\n        if (_isContract(to)) {\n            uint256 txGas = 2000000;\n            bool success = false;\n            bytes memory data = abi.encodeWithSignature(\n                'onTokenTransfer(address,address,address,address,uint256,bytes)',\n                rootToken,\n                childToken,\n                depositor,\n                to,\n                amount,\n                depositData\n            );\n            // solium-disable-next-line security/no-inline-assembly\n            assembly {\n                success := call(\n                    txGas,\n                    to,\n                    0,\n                    add(data, 0x20),\n                    mload(data),\n                    0,\n                    0\n                )\n            }\n        }\n    }\n\n    function _withdraw(\n        address childToken,\n        address receiver,\n        uint256 amount\n    ) internal {\n        IFxERC20 childTokenContract = IFxERC20(childToken);\n        // child token contract will have root token\n        address rootToken = childTokenContract.connectedToken();\n\n        // validate root and child token mapping\n        require(\n            childToken != address(0x0) &&\n                rootToken != address(0x0) &&\n                childToken == rootToChildToken[rootToken],\n            'FxERC20ChildTunnel: NO_MAPPED_TOKEN'\n        );\n\n        // withdraw tokens\n        childTokenContract.burn(msg.sender, amount);\n\n        // send message to root regarding token burn\n        _sendMessageToRoot(abi.encode(rootToken, childToken, receiver, amount));\n    }\n\n    // check if address is contract\n    function _isContract(address _addr) private view returns (bool) {\n        uint32 size;\n        assembly {\n            size := extcodesize(_addr)\n        }\n        return (size > 0);\n    }\n}\n",
  "sourcePath": "/Users/gregorycorin/Desktop/Vetri_dev/Bridge/fx-portal-permit/contracts/fxERC20ChildTunnel.sol",
  "compiler": {
    "name": "solc",
    "version": "0.8.17+commit.8df45f5f.Emscripten.clang"
  },
  "schemaVersion": "3.4.10",
  "updatedAt": "2023-02-28T15:44:51.298Z",
  "networkType": "ethereum",
  "devdoc": {
    "kind": "dev",
    "methods": {},
    "title": "FxERC20ChildTunnel",
    "version": 1
  },
  "userdoc": {
    "kind": "user",
    "methods": {},
    "version": 1
  }
}