{
  "contractName": "FxERC20RootTunnel",
  "abi": [
    {
      "inputs": [
        {
          "internalType": "address",
          "name": "_checkpointManager",
          "type": "address"
        },
        {
          "internalType": "address",
          "name": "_fxRoot",
          "type": "address"
        },
        {
          "internalType": "address",
          "name": "_fxERC20Token",
          "type": "address"
        }
      ],
      "stateMutability": "nonpayable",
      "type": "constructor"
    },
    {
      "anonymous": false,
      "inputs": [
        {
          "indexed": true,
          "internalType": "address",
          "name": "rootToken",
          "type": "address"
        },
        {
          "indexed": true,
          "internalType": "address",
          "name": "depositor",
          "type": "address"
        },
        {
          "indexed": true,
          "internalType": "address",
          "name": "userAddress",
          "type": "address"
        },
        {
          "indexed": false,
          "internalType": "uint256",
          "name": "amount",
          "type": "uint256"
        }
      ],
      "name": "FxDepositERC20",
      "type": "event"
    },
    {
      "anonymous": false,
      "inputs": [
        {
          "indexed": true,
          "internalType": "address",
          "name": "rootToken",
          "type": "address"
        },
        {
          "indexed": true,
          "internalType": "address",
          "name": "childToken",
          "type": "address"
        },
        {
          "indexed": true,
          "internalType": "address",
          "name": "userAddress",
          "type": "address"
        },
        {
          "indexed": false,
          "internalType": "uint256",
          "name": "amount",
          "type": "uint256"
        }
      ],
      "name": "FxWithdrawERC20",
      "type": "event"
    },
    {
      "anonymous": false,
      "inputs": [
        {
          "indexed": true,
          "internalType": "address",
          "name": "rootToken",
          "type": "address"
        },
        {
          "indexed": true,
          "internalType": "address",
          "name": "childToken",
          "type": "address"
        }
      ],
      "name": "TokenMappedERC20",
      "type": "event"
    },
    {
      "inputs": [],
      "name": "DEPOSIT",
      "outputs": [
        {
          "internalType": "bytes32",
          "name": "",
          "type": "bytes32"
        }
      ],
      "stateMutability": "view",
      "type": "function",
      "constant": true
    },
    {
      "inputs": [],
      "name": "MAP_TOKEN",
      "outputs": [
        {
          "internalType": "bytes32",
          "name": "",
          "type": "bytes32"
        }
      ],
      "stateMutability": "view",
      "type": "function",
      "constant": true
    },
    {
      "inputs": [],
      "name": "SEND_MESSAGE_EVENT_SIG",
      "outputs": [
        {
          "internalType": "bytes32",
          "name": "",
          "type": "bytes32"
        }
      ],
      "stateMutability": "view",
      "type": "function",
      "constant": true
    },
    {
      "inputs": [],
      "name": "checkpointManager",
      "outputs": [
        {
          "internalType": "contract ICheckpointManager",
          "name": "",
          "type": "address"
        }
      ],
      "stateMutability": "view",
      "type": "function",
      "constant": true
    },
    {
      "inputs": [],
      "name": "childTokenTemplateCodeHash",
      "outputs": [
        {
          "internalType": "bytes32",
          "name": "",
          "type": "bytes32"
        }
      ],
      "stateMutability": "view",
      "type": "function",
      "constant": true
    },
    {
      "inputs": [
        {
          "internalType": "bytes32",
          "name": "salt",
          "type": "bytes32"
        },
        {
          "internalType": "bytes32",
          "name": "bytecodeHash",
          "type": "bytes32"
        },
        {
          "internalType": "address",
          "name": "deployer",
          "type": "address"
        }
      ],
      "name": "computedCreate2Address",
      "outputs": [
        {
          "internalType": "address",
          "name": "",
          "type": "address"
        }
      ],
      "stateMutability": "pure",
      "type": "function",
      "constant": true
    },
    {
      "inputs": [],
      "name": "fxChildTunnel",
      "outputs": [
        {
          "internalType": "address",
          "name": "",
          "type": "address"
        }
      ],
      "stateMutability": "view",
      "type": "function",
      "constant": true
    },
    {
      "inputs": [],
      "name": "fxRoot",
      "outputs": [
        {
          "internalType": "contract IFxStateSender",
          "name": "",
          "type": "address"
        }
      ],
      "stateMutability": "view",
      "type": "function",
      "constant": true
    },
    {
      "inputs": [
        {
          "internalType": "bytes32",
          "name": "",
          "type": "bytes32"
        }
      ],
      "name": "processedExits",
      "outputs": [
        {
          "internalType": "bool",
          "name": "",
          "type": "bool"
        }
      ],
      "stateMutability": "view",
      "type": "function",
      "constant": true
    },
    {
      "inputs": [
        {
          "internalType": "bytes",
          "name": "inputData",
          "type": "bytes"
        }
      ],
      "name": "receiveMessage",
      "outputs": [],
      "stateMutability": "nonpayable",
      "type": "function"
    },
    {
      "inputs": [
        {
          "internalType": "address",
          "name": "",
          "type": "address"
        }
      ],
      "name": "rootToChildTokens",
      "outputs": [
        {
          "internalType": "address",
          "name": "",
          "type": "address"
        }
      ],
      "stateMutability": "view",
      "type": "function",
      "constant": true
    },
    {
      "inputs": [
        {
          "internalType": "address",
          "name": "_fxChildTunnel",
          "type": "address"
        }
      ],
      "name": "setFxChildTunnel",
      "outputs": [],
      "stateMutability": "nonpayable",
      "type": "function"
    },
    {
      "inputs": [
        {
          "internalType": "address",
          "name": "rootToken",
          "type": "address"
        }
      ],
      "name": "mapToken",
      "outputs": [],
      "stateMutability": "nonpayable",
      "type": "function"
    },
    {
      "inputs": [
        {
          "internalType": "address",
          "name": "rootToken",
          "type": "address"
        },
        {
          "internalType": "address",
          "name": "user",
          "type": "address"
        },
        {
          "internalType": "uint256",
          "name": "amount",
          "type": "uint256"
        },
        {
          "internalType": "bytes",
          "name": "data",
          "type": "bytes"
        }
      ],
      "name": "deposit",
      "outputs": [],
      "stateMutability": "nonpayable",
      "type": "function"
    }
  ],
  "bytecode": "0x60a06040523480156200001157600080fd5b506040516200459b3803806200459b8339818101604052810190620000379190620001c6565b828281600160006101000a81548173ffffffffffffffffffffffffffffffffffffffff021916908373ffffffffffffffffffffffffffffffffffffffff160217905550806000806101000a81548173ffffffffffffffffffffffffffffffffffffffff021916908373ffffffffffffffffffffffffffffffffffffffff1602179055505050620000cd81620000e460201b60201c565b80519060200120608081815250505050506200036b565b60606000693d602d80600a3d3981f360b01b9050600069363d3d373d3d3d363d7360b01b905060008460601b905060006e5af43d82803e903d91602b57fd5bf360881b90508383838360405160200162000142949392919062000315565b604051602081830303815290604052945050505050919050565b600080fd5b600073ffffffffffffffffffffffffffffffffffffffff82169050919050565b60006200018e8262000161565b9050919050565b620001a08162000181565b8114620001ac57600080fd5b50565b600081519050620001c08162000195565b92915050565b600080600060608486031215620001e257620001e16200015c565b5b6000620001f286828701620001af565b93505060206200020586828701620001af565b92505060406200021886828701620001af565b9150509250925092565b60007fffffffffffffffffffff0000000000000000000000000000000000000000000082169050919050565b6000819050919050565b6200026d620002678262000222565b6200024e565b82525050565b60007fffffffffffffffffffffffffffffffffffffffff00000000000000000000000082169050919050565b6000819050919050565b620002be620002b88262000273565b6200029f565b82525050565b60007fffffffffffffffffffffffffffffff000000000000000000000000000000000082169050919050565b6000819050919050565b6200030f6200030982620002c4565b620002f0565b82525050565b600062000323828762000258565b600a8201915062000335828662000258565b600a82019150620003478285620002a9565b601482019150620003598284620002fa565b600f8201915081905095945050505050565b60805161420d6200038e6000396000818161030a01526109d0015261420d6000f3fe608060405234801561001057600080fd5b50600436106100ea5760003560e01c8063aea4e49e1161008c578063de9b771f11610066578063de9b771f1461024f578063e9c670ad1461026d578063f4a120f714610289578063f953cec7146102a5576100ea565b8063aea4e49e146101f7578063c0857ba014610213578063d81c8e5214610231576100ea565b80637337957f116100c85780637337957f1461015b578063886a69ba1461018b57806388e70068146101a9578063972c4928146101d9576100ea565b80630e387de6146100ef578063607f2d421461010d57806369914b3e1461013d575b600080fd5b6100f76102c1565b60405161010491906129ce565b60405180910390f35b61012760048036038101906101229190612a29565b6102e8565b6040516101349190612a71565b60405180910390f35b610145610308565b60405161015291906129ce565b60405180910390f35b61017560048036038101906101709190612aea565b61032c565b6040516101829190612b4c565b60405180910390f35b610193610370565b6040516101a091906129ce565b60405180910390f35b6101c360048036038101906101be9190612b67565b610394565b6040516101d09190612b4c565b60405180910390f35b6101e16103c7565b6040516101ee9190612b4c565b60405180910390f35b610211600480360381019061020c9190612b67565b6103ed565b005b61021b6104c2565b6040516102289190612bf3565b60405180910390f35b6102396104e8565b60405161024691906129ce565b60405180910390f35b61025761050c565b6040516102649190612c2f565b60405180910390f35b61028760048036038101906102829190612dc6565b610530565b005b6102a3600480360381019061029e9190612b67565b6106f3565b005b6102bf60048036038101906102ba9190612e49565b610afb565b005b7f8c5261668696ce22758910d05bab8f186d6eb247ceac2af2e82c7dc17669b03660001b81565b60036020528060005260406000206000915054906101000a900460ff1681565b7f000000000000000000000000000000000000000000000000000000000000000081565b60008060ff60f81b83868660405160200161034a9493929190612f48565b6040516020818303038152906040528051906020012090508060001c9150509392505050565b7f2cef46a936bdc5b7e6e8c71aa04560c41cf7d88bb26901a7e7f4936ff02accad81565b60046020528060005260406000206000915054906101000a900473ffffffffffffffffffffffffffffffffffffffff1681565b600260009054906101000a900473ffffffffffffffffffffffffffffffffffffffff1681565b600073ffffffffffffffffffffffffffffffffffffffff16600260009054906101000a900473ffffffffffffffffffffffffffffffffffffffff1673ffffffffffffffffffffffffffffffffffffffff161461047e576040517f08c379a000000000000000000000000000000000000000000000000000000000815260040161047590613019565b60405180910390fd5b80600260006101000a81548173ffffffffffffffffffffffffffffffffffffffff021916908373ffffffffffffffffffffffffffffffffffffffff16021790555050565b600160009054906101000a900473ffffffffffffffffffffffffffffffffffffffff1681565b7f87a7811f4bfedea3d341ad165680ae306b01aaeacc205d227629cf157dd9f82181565b60008054906101000a900473ffffffffffffffffffffffffffffffffffffffff1681565b600073ffffffffffffffffffffffffffffffffffffffff16600460008673ffffffffffffffffffffffffffffffffffffffff1673ffffffffffffffffffffffffffffffffffffffff16815260200190815260200160002060009054906101000a900473ffffffffffffffffffffffffffffffffffffffff1673ffffffffffffffffffffffffffffffffffffffff16036105cd576105cc846106f3565b5b6105fa3330848773ffffffffffffffffffffffffffffffffffffffff16610b15909392919063ffffffff16565b60007f87a7811f4bfedea3d341ad165680ae306b01aaeacc205d227629cf157dd9f82185338686866040516020016106369594939291906130c7565b604051602081830303815290604052604051602001610656929190613121565b604051602081830303815290604052905061067081610b9e565b8373ffffffffffffffffffffffffffffffffffffffff163373ffffffffffffffffffffffffffffffffffffffff168673ffffffffffffffffffffffffffffffffffffffff167f8a58355ceb4626422a66b0f36743672dde8507c6be664f0e5b9de8350a132159866040516106e49190613151565b60405180910390a45050505050565b600073ffffffffffffffffffffffffffffffffffffffff16600460008373ffffffffffffffffffffffffffffffffffffffff1673ffffffffffffffffffffffffffffffffffffffff16815260200190815260200160002060009054906101000a900473ffffffffffffffffffffffffffffffffffffffff1673ffffffffffffffffffffffffffffffffffffffff16146107c1576040517f08c379a00000000000000000000000000000000000000000000000000000000081526004016107b8906131de565b60405180910390fd5b600081905060008173ffffffffffffffffffffffffffffffffffffffff166306fdde036040518163ffffffff1660e01b8152600401600060405180830381865afa158015610813573d6000803e3d6000fd5b505050506040513d6000823e3d601f19601f8201168201806040525081019061083c919061329f565b905060008273ffffffffffffffffffffffffffffffffffffffff166395d89b416040518163ffffffff1660e01b8152600401600060405180830381865afa15801561088b573d6000803e3d6000fd5b505050506040513d6000823e3d601f19601f820116820180604052508101906108b4919061329f565b905060008373ffffffffffffffffffffffffffffffffffffffff1663313ce5676040518163ffffffff1660e01b8152600401602060405180830381865afa158015610903573d6000803e3d6000fd5b505050506040513d601f19601f820116820180604052508101906109279190613321565b905060007f2cef46a936bdc5b7e6e8c71aa04560c41cf7d88bb26901a7e7f4936ff02accad8685858560405160200161096394939291906133a1565b604051602081830303815290604052604051602001610983929190613121565b604051602081830303815290604052905061099d81610b9e565b6000866040516020016109b091906133f4565b6040516020818303038152906040528051906020012090506000610a17827f0000000000000000000000000000000000000000000000000000000000000000600260009054906101000a900473ffffffffffffffffffffffffffffffffffffffff1661032c565b905080600460008a73ffffffffffffffffffffffffffffffffffffffff1673ffffffffffffffffffffffffffffffffffffffff16815260200190815260200160002060006101000a81548173ffffffffffffffffffffffffffffffffffffffff021916908373ffffffffffffffffffffffffffffffffffffffff1602179055508073ffffffffffffffffffffffffffffffffffffffff168873ffffffffffffffffffffffffffffffffffffffff167fc21cd413746aa9146d86960ed90847c18aa555d8dfd256e0aac3954c41e3cfe260405160405180910390a35050505050505050565b6000610b0682610c50565b9050610b1181610f55565b5050565b610b98846323b872dd60e01b858585604051602401610b369392919061340f565b604051602081830303815290604052907bffffffffffffffffffffffffffffffffffffffffffffffffffffffff19166020820180517bffffffffffffffffffffffffffffffffffffffffffffffffffffffff83818316178352505050506110f2565b50505050565b60008054906101000a900473ffffffffffffffffffffffffffffffffffffffff1673ffffffffffffffffffffffffffffffffffffffff1663b4720477600260009054906101000a900473ffffffffffffffffffffffffffffffffffffffff16836040518363ffffffff1660e01b8152600401610c1b929190613446565b600060405180830381600087803b158015610c3557600080fd5b505af1158015610c49573d6000803e3d6000fd5b5050505050565b60606000610c5d836111b9565b90506000610c6a826111ed565b90506000610c778361121e565b9050600081610c858461124f565b610c8e86611465565b604051602001610ca0939291906134d3565b604051602081830303815290604052805190602001209050600015156003600083815260200190815260200160002060009054906101000a900460ff16151514610d1f576040517f08c379a0000000000000000000000000000000000000000000000000000000008152600401610d169061357e565b60405180910390fd5b60016003600083815260200190815260200160002060006101000a81548160ff0219169083151502179055506000610d5685611496565b90506000610d63826115bb565b9050610d6e81611632565b73ffffffffffffffffffffffffffffffffffffffff16600260009054906101000a900473ffffffffffffffffffffffffffffffffffffffff1673ffffffffffffffffffffffffffffffffffffffff1614610dfd576040517f08c379a0000000000000000000000000000000000000000000000000000000008152600401610df490613610565b60405180910390fd5b6000610e0887611663565b9050610e26610e1684611697565b87610e208a6116a5565b846116d6565b610e65576040517f08c379a0000000000000000000000000000000000000000000000000000000008152600401610e5c906136a2565b60405180910390fd5b610e9385610e72896119d4565b610e7b8a611a05565b84610e858c611a39565b610e8e8d611a6a565b611a9b565b506000610e9f83611be2565b90507f8c5261668696ce22758910d05bab8f186d6eb247ceac2af2e82c7dc17669b03660001b610ee1610edc600084611c2790919063ffffffff16565b611c56565b60001b14610f24576040517f08c379a0000000000000000000000000000000000000000000000000000000008152600401610f1b9061370e565b60405180910390fd5b6000610f2f84611cd9565b806020019051810190610f42919061379e565b9050809950505050505050505050919050565b60008060008084806020019051810190610f6f919061383a565b93509350935093508273ffffffffffffffffffffffffffffffffffffffff16600460008673ffffffffffffffffffffffffffffffffffffffff1673ffffffffffffffffffffffffffffffffffffffff16815260200190815260200160002060009054906101000a900473ffffffffffffffffffffffffffffffffffffffff1673ffffffffffffffffffffffffffffffffffffffff1614611044576040517f08c379a000000000000000000000000000000000000000000000000000000000815260040161103b90613913565b60405180910390fd5b61106f82828673ffffffffffffffffffffffffffffffffffffffff16611d0a9092919063ffffffff16565b8173ffffffffffffffffffffffffffffffffffffffff168373ffffffffffffffffffffffffffffffffffffffff168573ffffffffffffffffffffffffffffffffffffffff167f1a77c658a097b28097b54b8acb928a569a3830a6cbed2de1f60001c0757eb0d6846040516110e39190613151565b60405180910390a45050505050565b6000611154826040518060400160405280602081526020017f5361666545524332303a206c6f772d6c6576656c2063616c6c206661696c65648152508573ffffffffffffffffffffffffffffffffffffffff16611d909092919063ffffffff16565b90506000815111156111b45780806020019051810190611174919061395f565b6111b3576040517f08c379a00000000000000000000000000000000000000000000000000000000081526004016111aa906139fe565b60405180910390fd5b5b505050565b6111c1612934565b60006111d46111cf84611da8565b611dd6565b9050604051806020016040528082815250915050919050565b6060611217826000015160088151811061120a57611209613a1e565b5b6020026020010151611eeb565b9050919050565b6000611248826000015160028151811061123b5761123a613a1e565b5b6020026020010151611c56565b9050919050565b6060600060405180602001604052806000815250905060008351111561145c5760008061127d600086611fa2565b60f81c905060018160ff161480611297575060038160ff16145b15611361576001600286516112ac9190613a7c565b6112b69190613abe565b67ffffffffffffffff8111156112cf576112ce612c9b565b5b6040519080825280601f01601f1916602001820160405280156113015781602001600182028036833780820191505090505b5092506000611311600187611fa2565b9050808460008151811061132857611327613a1e565b5b60200101907effffffffffffffffffffffffffffffffffffffffffffffffffffffffffffff1916908160001a90535060019250506113cd565b60028086516113709190613a7c565b61137a9190613abe565b67ffffffffffffffff81111561139357611392612c9b565b5b6040519080825280601f01601f1916602001820160405280156113c55781602001600182028036833780820191505090505b509250600091505b60008260ff1690505b83518110156114585761140360028460ff16836113f39190613abe565b6113fd9190613af2565b87611fa2565b84828151811061141657611415613a1e565b5b60200101907effffffffffffffffffffffffffffffffffffffffffffffffffffffffffffff1916908160001a905350808061145090613b26565b9150506113d6565b5050505b80915050919050565b600061148f826000015160098151811061148257611481613a1e565b5b6020026020010151611c56565b9050919050565b61149e612947565b6114c682600001516006815181106114b9576114b8613a1e565b5b6020026020010151611eeb565b816020018190525060006114dd8260200151611da8565b90506114e88161203a565b15611503576114f681611dd6565b82600001819052506115a3565b60008260200151905060006001825161151c9190613abe565b67ffffffffffffffff81111561153557611534612c9b565b5b6040519080825280601f01601f1916602001820160405280156115675781602001600182028036833780820191505090505b50905060008083602101915082602001905061158582828551612087565b61159661159184611da8565b611dd6565b8660000181905250505050505b6115ac83611465565b82604001818152505050919050565b6115c3612968565b60006115ed83600001516003815181106115e0576115df613a1e565b5b6020026020010151611dd6565b83604001518151811061160357611602613a1e565b5b60200260200101519050604051806040016040528082815260200161162783611dd6565b815250915050919050565b600061165c826020015160008151811061164f5761164e613a1e565b5b6020026020010151612128565b9050919050565b600061168d82600001516005815181106116805761167f613a1e565b5b6020026020010151611c56565b60001b9050919050565b606081602001519050919050565b60606116cf82600001516007815181106116c2576116c1613a1e565b5b6020026020010151611eeb565b9050919050565b6000806116e284611da8565b905060006116ef82611dd6565b905060608060008690506000806117058b61124f565b905060008151036117205760009750505050505050506119cc565b60005b86518110156119c3578151831115611746576000985050505050505050506119cc565b61176987828151811061175c5761175b613a1e565b5b602002602001015161214b565b95508580519060200120841461178a576000985050505050505050506119cc565b6117ad8782815181106117a05761179f613a1e565b5b6020026020010151611dd6565b9450601185510361189d578151830361181a578c805190602001206117ec866010815181106117df576117de613a1e565b5b6020026020010151611eeb565b8051906020012003611809576001985050505050505050506119cc565b6000985050505050505050506119cc565b600082848151811061182f5761182e613a1e565b5b602001015160f81c60f81b60f81c905060108160ff16111561185d57600099505050505050505050506119cc565b611883868260ff168151811061187657611875613a1e565b5b60200260200101516121da565b60001b94506001846118959190613af2565b9350506119b0565b600285510361199e5760006118d66118cf876000815181106118c2576118c1613a1e565b5b6020026020010151611eeb565b8486612211565b9050825181856118e69190613af2565b03611947578d805190602001206119178760018151811061190a57611909613a1e565b5b6020026020010151611eeb565b805190602001200361193557600199505050505050505050506119cc565b600099505050505050505050506119cc565b6000810361196157600099505050505050505050506119cc565b808461196d9190613af2565b93506119938660018151811061198657611985613a1e565b5b60200260200101516121da565b60001b9450506119af565b6000985050505050505050506119cc565b5b80806119bb90613b26565b915050611723565b50505050505050505b949350505050565b60006119fe82600001516003815181106119f1576119f0613a1e565b5b6020026020010151611c56565b9050919050565b6000611a2f8260000151600481518110611a2257611a21613a1e565b5b6020026020010151611c56565b60001b9050919050565b6000611a638260000151600081518110611a5657611a55613a1e565b5b6020026020010151611c56565b9050919050565b6060611a948260000151600181518110611a8757611a86613a1e565b5b6020026020010151611eeb565b9050919050565b600080600080600160009054906101000a900473ffffffffffffffffffffffffffffffffffffffff1673ffffffffffffffffffffffffffffffffffffffff166341539d4a876040518263ffffffff1660e01b8152600401611afc9190613151565b60a060405180830381865afa158015611b19573d6000803e3d6000fd5b505050506040513d601f19601f82011682018060405250810190611b3d9190613b98565b5093505092509250611b93828b611b549190613abe565b84878d8d8d8d604051602001611b6d9493929190613c13565b60405160208183030381529060405280519060200120612346909392919063ffffffff16565b611bd2576040517f08c379a0000000000000000000000000000000000000000000000000000000008152600401611bc990613cad565b60405180910390fd5b8093505050509695505050505050565b611bea612988565b6040518060200160405280611c1d8460200151600181518110611c1057611c0f613a1e565b5b6020026020010151611dd6565b8152509050919050565b611c2f61299b565b82600001518281518110611c4657611c45613a1e565b5b6020026020010151905092915050565b6000808260000151118015611c7057506021826000015111155b611c7957600080fd5b6000611c8883602001516124b6565b90506000818460000151611c9c9190613abe565b9050600080838660200151611cb19190613af2565b9050805191506020831015611ccd57826020036101000a820491505b81945050505050919050565b6060611d038260200151600281518110611cf657611cf5613a1e565b5b6020026020010151611eeb565b9050919050565b611d8b8363a9059cbb60e01b8484604051602401611d29929190613ccd565b604051602081830303815290604052907bffffffffffffffffffffffffffffffffffffffffffffffffffffffff19166020820180517bffffffffffffffffffffffffffffffffffffffffffffffffffffffff83818316178352505050506110f2565b505050565b6060611d9f8484600085612575565b90509392505050565b611db061299b565b600060208301905060405180604001604052808451815260200182815250915050919050565b6060611de18261203a565b611dea57600080fd5b6000611df583612642565b905060008167ffffffffffffffff811115611e1357611e12612c9b565b5b604051908082528060200260200182016040528015611e4c57816020015b611e3961299b565b815260200190600190039081611e315790505b5090506000611e5e85602001516124b6565b8560200151611e6d9190613af2565b9050600080600090505b84811015611ede57611e88836126cf565b9150604051806040016040528083815260200184815250848281518110611eb257611eb1613a1e565b5b60200260200101819052508183611ec99190613af2565b92508080611ed690613b26565b915050611e77565b5082945050505050919050565b60606000826000015111611efe57600080fd5b6000611f0d83602001516124b6565b90506000818460000151611f219190613abe565b905060008167ffffffffffffffff811115611f3f57611f3e612c9b565b5b6040519080825280601f01601f191660200182016040528015611f715781602001600182028036833780820191505090505b5090506000816020019050611f96848760200151611f8f9190613af2565b82856127ab565b81945050505050919050565b600080600284611fb29190613d25565b14611ff557601082600285611fc79190613d56565b81518110611fd857611fd7613a1e565b5b602001015160f81c60f81b60f81c611ff09190613d87565b61202f565b6010826002856120059190613d56565b8151811061201657612015613a1e565b5b602001015160f81c60f81b60f81c61202e9190613db8565b5b60f81b905092915050565b6000808260000151036120505760009050612082565b60008083602001519050805160001a915060c060ff168260ff16101561207b57600092505050612082565b6001925050505b919050565b6000810315612123575b602060ff1681106120db5782518252602060ff16836120b09190613af2565b9250602060ff16826120c29190613af2565b9150602060ff16816120d49190613abe565b9050612091565b6000810315612123576000600182602060ff166120f89190613abe565b6101006121059190613f1c565b61210f9190613abe565b905080198451168184511681811785525050505b505050565b6000601582600001511461213b57600080fd5b61214482611c56565b9050919050565b60606000826000015167ffffffffffffffff81111561216d5761216c612c9b565b5b6040519080825280601f01601f19166020018201604052801561219f5781602001600182028036833780820191505090505b50905060008151036121b457809150506121d5565b60008160200190506121cf84602001518286600001516127ab565b81925050505b919050565b600060218260000151146121ed57600080fd5b600080600184602001516122019190613af2565b9050805191508192505050919050565b6000806000905060006122238661124f565b90506000815167ffffffffffffffff81111561224257612241612c9b565b5b6040519080825280601f01601f1916602001820160405280156122745781602001600182028036833780820191505090505b50905060008590505b82518661228a9190613af2565b8110156123155760008782815181106122a6576122a5613a1e565b5b602001015160f81c60f81b9050808388846122c19190613abe565b815181106122d2576122d1613a1e565b5b60200101907effffffffffffffffffffffffffffffffffffffffffffffffffffffffffffff1916908160001a90535050808061230d90613b26565b91505061227d565b5080805190602001208280519060200120036123345781519250612339565b600092505b8293505050509392505050565b600080602083516123579190613d25565b14612397576040517f08c379a000000000000000000000000000000000000000000000000000000000815260040161238e90613fb3565b60405180910390fd5b6000602083516123a79190613d56565b90508060026123b69190613f1c565b85106123f7576040517f08c379a00000000000000000000000000000000000000000000000000000000081526004016123ee9061401f565b60405180910390fd5b6000808790506000602090505b855181116124a55780860151925060006002896124219190613d25565b0361245657818360405160200161243992919061403f565b604051602081830303815290604052805190602001209150612482565b828260405160200161246992919061403f565b6040516020818303038152906040528051906020012091505b60028861248f9190613d56565b975060208161249e9190613af2565b9050612404565b508581149350505050949350505050565b600080825160001a9050608060ff168110156124d6576000915050612570565b60b860ff168110806124fb575060c060ff1681101580156124fa575060f860ff1681105b5b1561250a576001915050612570565b60c060ff168110156125455760018060b8612525919061406b565b60ff16826125339190613abe565b61253d9190613af2565b915050612570565b60018060f8612554919061406b565b60ff16826125629190613abe565b61256c9190613af2565b9150505b919050565b6060824710156125ba576040517f08c379a00000000000000000000000000000000000000000000000000000000081526004016125b190614112565b60405180910390fd5b6000808673ffffffffffffffffffffffffffffffffffffffff1685876040516125e39190614132565b60006040518083038185875af1925050503d8060008114612620576040519150601f19603f3d011682016040523d82523d6000602084013e612625565b606091505b50915091506126368783838761284c565b92505050949350505050565b60008082600001510361265857600090506126ca565b60008061266884602001516124b6565b84602001516126779190613af2565b905060008460000151856020015161268f9190613af2565b90505b808210156126c3576126a3826126cf565b826126ae9190613af2565b915082806126bb90613b26565b935050612692565b8293505050505b919050565b6000806000835160001a9050608060ff168110156126f057600191506127a1565b60b860ff1681101561271f576001608060ff168261270e9190613abe565b6127189190613af2565b91506127a0565b60c060ff1681101561274f5760b78103600185019450806020036101000a8551046001820181019350505061279f565b60f860ff1681101561277e57600160c060ff168261276d9190613abe565b6127779190613af2565b915061279e565b60f78103600185019450806020036101000a855104600182018101935050505b5b5b5b8192505050919050565b6000810315612847575b602060ff1681106127ff5782518252602060ff16836127d49190613af2565b9250602060ff16826127e69190613af2565b9150602060ff16816127f89190613abe565b90506127b5565b6000810315612847576000600182602060ff1661281c9190613abe565b6101006128299190613f1c565b6128339190613abe565b905080198451168184511681811785525050505b505050565b606083156128ae5760008351036128a657612866856128c1565b6128a5576040517f08c379a000000000000000000000000000000000000000000000000000000000815260040161289c90614195565b60405180910390fd5b5b8290506128b9565b6128b883836128e4565b5b949350505050565b6000808273ffffffffffffffffffffffffffffffffffffffff163b119050919050565b6000825111156128f75781518083602001fd5b806040517f08c379a000000000000000000000000000000000000000000000000000000000815260040161292b91906141b5565b60405180910390fd5b6040518060200160405280606081525090565b60405180606001604052806060815260200160608152602001600081525090565b604051806040016040528061297b61299b565b8152602001606081525090565b6040518060200160405280606081525090565b604051806040016040528060008152602001600081525090565b6000819050919050565b6129c8816129b5565b82525050565b60006020820190506129e360008301846129bf565b92915050565b6000604051905090565b600080fd5b600080fd5b612a06816129b5565b8114612a1157600080fd5b50565b600081359050612a23816129fd565b92915050565b600060208284031215612a3f57612a3e6129f3565b5b6000612a4d84828501612a14565b91505092915050565b60008115159050919050565b612a6b81612a56565b82525050565b6000602082019050612a866000830184612a62565b92915050565b600073ffffffffffffffffffffffffffffffffffffffff82169050919050565b6000612ab782612a8c565b9050919050565b612ac781612aac565b8114612ad257600080fd5b50565b600081359050612ae481612abe565b92915050565b600080600060608486031215612b0357612b026129f3565b5b6000612b1186828701612a14565b9350506020612b2286828701612a14565b9250506040612b3386828701612ad5565b9150509250925092565b612b4681612aac565b82525050565b6000602082019050612b616000830184612b3d565b92915050565b600060208284031215612b7d57612b7c6129f3565b5b6000612b8b84828501612ad5565b91505092915050565b6000819050919050565b6000612bb9612bb4612baf84612a8c565b612b94565b612a8c565b9050919050565b6000612bcb82612b9e565b9050919050565b6000612bdd82612bc0565b9050919050565b612bed81612bd2565b82525050565b6000602082019050612c086000830184612be4565b92915050565b6000612c1982612bc0565b9050919050565b612c2981612c0e565b82525050565b6000602082019050612c446000830184612c20565b92915050565b6000819050919050565b612c5d81612c4a565b8114612c6857600080fd5b50565b600081359050612c7a81612c54565b92915050565b600080fd5b600080fd5b6000601f19601f8301169050919050565b7f4e487b7100000000000000000000000000000000000000000000000000000000600052604160045260246000fd5b612cd382612c8a565b810181811067ffffffffffffffff82111715612cf257612cf1612c9b565b5b80604052505050565b6000612d056129e9565b9050612d118282612cca565b919050565b600067ffffffffffffffff821115612d3157612d30612c9b565b5b612d3a82612c8a565b9050602081019050919050565b82818337600083830152505050565b6000612d69612d6484612d16565b612cfb565b905082815260208101848484011115612d8557612d84612c85565b5b612d90848285612d47565b509392505050565b600082601f830112612dad57612dac612c80565b5b8135612dbd848260208601612d56565b91505092915050565b60008060008060808587031215612de057612ddf6129f3565b5b6000612dee87828801612ad5565b9450506020612dff87828801612ad5565b9350506040612e1087828801612c6b565b925050606085013567ffffffffffffffff811115612e3157612e306129f8565b5b612e3d87828801612d98565b91505092959194509250565b600060208284031215612e5f57612e5e6129f3565b5b600082013567ffffffffffffffff811115612e7d57612e7c6129f8565b5b612e8984828501612d98565b91505092915050565b60007fff0000000000000000000000000000000000000000000000000000000000000082169050919050565b6000819050919050565b612ed9612ed482612e92565b612ebe565b82525050565b60008160601b9050919050565b6000612ef782612edf565b9050919050565b6000612f0982612eec565b9050919050565b612f21612f1c82612aac565b612efe565b82525050565b6000819050919050565b612f42612f3d826129b5565b612f27565b82525050565b6000612f548287612ec8565b600182019150612f648286612f10565b601482019150612f748285612f31565b602082019150612f848284612f31565b60208201915081905095945050505050565b600082825260208201905092915050565b7f467842617365526f6f7454756e6e656c3a204348494c445f54554e4e454c5f4160008201527f4c52454144595f53455400000000000000000000000000000000000000000000602082015250565b6000613003602a83612f96565b915061300e82612fa7565b604082019050919050565b6000602082019050818103600083015261303281612ff6565b9050919050565b61304281612c4a565b82525050565b600081519050919050565b600082825260208201905092915050565b60005b83811015613082578082015181840152602081019050613067565b60008484015250505050565b600061309982613048565b6130a38185613053565b93506130b3818560208601613064565b6130bc81612c8a565b840191505092915050565b600060a0820190506130dc6000830188612b3d565b6130e96020830187612b3d565b6130f66040830186612b3d565b6131036060830185613039565b8181036080830152613115818461308e565b90509695505050505050565b600060408201905061313660008301856129bf565b8181036020830152613148818461308e565b90509392505050565b60006020820190506131666000830184613039565b92915050565b7f46784552433230526f6f7454756e6e656c3a20414c52454144595f4d4150504560008201527f4400000000000000000000000000000000000000000000000000000000000000602082015250565b60006131c8602183612f96565b91506131d38261316c565b604082019050919050565b600060208201905081810360008301526131f7816131bb565b9050919050565b600067ffffffffffffffff82111561321957613218612c9b565b5b61322282612c8a565b9050602081019050919050565b600061324261323d846131fe565b612cfb565b90508281526020810184848401111561325e5761325d612c85565b5b613269848285613064565b509392505050565b600082601f83011261328657613285612c80565b5b815161329684826020860161322f565b91505092915050565b6000602082840312156132b5576132b46129f3565b5b600082015167ffffffffffffffff8111156132d3576132d26129f8565b5b6132df84828501613271565b91505092915050565b600060ff82169050919050565b6132fe816132e8565b811461330957600080fd5b50565b60008151905061331b816132f5565b92915050565b600060208284031215613337576133366129f3565b5b60006133458482850161330c565b91505092915050565b600081519050919050565b60006133648261334e565b61336e8185612f96565b935061337e818560208601613064565b61338781612c8a565b840191505092915050565b61339b816132e8565b82525050565b60006080820190506133b66000830187612b3d565b81810360208301526133c88186613359565b905081810360408301526133dc8185613359565b90506133eb6060830184613392565b95945050505050565b60006134008284612f10565b60148201915081905092915050565b60006060820190506134246000830186612b3d565b6134316020830185612b3d565b61343e6040830184613039565b949350505050565b600060408201905061345b6000830185612b3d565b818103602083015261346d818461308e565b90509392505050565b6000819050919050565b61349161348c82612c4a565b613476565b82525050565b600081905092915050565b60006134ad82613048565b6134b78185613497565b93506134c7818560208601613064565b80840191505092915050565b60006134df8286613480565b6020820191506134ef82856134a2565b91506134fb8284613480565b602082019150819050949350505050565b7f4678526f6f7454756e6e656c3a20455849545f414c52454144595f50524f434560008201527f5353454400000000000000000000000000000000000000000000000000000000602082015250565b6000613568602483612f96565b91506135738261350c565b604082019050919050565b600060208201905081810360008301526135978161355b565b9050919050565b7f4678526f6f7454756e6e656c3a20494e56414c49445f46585f4348494c445f5460008201527f554e4e454c000000000000000000000000000000000000000000000000000000602082015250565b60006135fa602583612f96565b91506136058261359e565b604082019050919050565b60006020820190508181036000830152613629816135ed565b9050919050565b7f4678526f6f7454756e6e656c3a20494e56414c49445f524543454950545f505260008201527f4f4f460000000000000000000000000000000000000000000000000000000000602082015250565b600061368c602383612f96565b915061369782613630565b604082019050919050565b600060208201905081810360008301526136bb8161367f565b9050919050565b7f4678526f6f7454756e6e656c3a20494e56414c49445f5349474e415455524500600082015250565b60006136f8601f83612f96565b9150613703826136c2565b602082019050919050565b60006020820190508181036000830152613727816136eb565b9050919050565b600061374161373c84612d16565b612cfb565b90508281526020810184848401111561375d5761375c612c85565b5b613768848285613064565b509392505050565b600082601f83011261378557613784612c80565b5b815161379584826020860161372e565b91505092915050565b6000602082840312156137b4576137b36129f3565b5b600082015167ffffffffffffffff8111156137d2576137d16129f8565b5b6137de84828501613770565b91505092915050565b60006137f282612a8c565b9050919050565b613802816137e7565b811461380d57600080fd5b50565b60008151905061381f816137f9565b92915050565b60008151905061383481612c54565b92915050565b60008060008060808587031215613854576138536129f3565b5b600061386287828801613810565b945050602061387387828801613810565b935050604061388487828801613810565b925050606061389587828801613825565b91505092959194509250565b7f46784552433230526f6f7454756e6e656c3a20494e56414c49445f4d4150504960008201527f4e475f4f4e5f4558495400000000000000000000000000000000000000000000602082015250565b60006138fd602a83612f96565b9150613908826138a1565b604082019050919050565b6000602082019050818103600083015261392c816138f0565b9050919050565b61393c81612a56565b811461394757600080fd5b50565b60008151905061395981613933565b92915050565b600060208284031215613975576139746129f3565b5b60006139838482850161394a565b91505092915050565b7f5361666545524332303a204552433230206f7065726174696f6e20646964206e60008201527f6f74207375636365656400000000000000000000000000000000000000000000602082015250565b60006139e8602a83612f96565b91506139f38261398c565b604082019050919050565b60006020820190508181036000830152613a17816139db565b9050919050565b7f4e487b7100000000000000000000000000000000000000000000000000000000600052603260045260246000fd5b7f4e487b7100000000000000000000000000000000000000000000000000000000600052601160045260246000fd5b6000613a8782612c4a565b9150613a9283612c4a565b9250828202613aa081612c4a565b91508282048414831517613ab757613ab6613a4d565b5b5092915050565b6000613ac982612c4a565b9150613ad483612c4a565b9250828203905081811115613aec57613aeb613a4d565b5b92915050565b6000613afd82612c4a565b9150613b0883612c4a565b9250828201905080821115613b2057613b1f613a4d565b5b92915050565b6000613b3182612c4a565b91507fffffffffffffffffffffffffffffffffffffffffffffffffffffffffffffffff8203613b6357613b62613a4d565b5b600182019050919050565b600081519050613b7d816129fd565b92915050565b600081519050613b9281612abe565b92915050565b600080600080600060a08688031215613bb457613bb36129f3565b5b6000613bc288828901613b6e565b9550506020613bd388828901613825565b9450506040613be488828901613825565b9350506060613bf588828901613825565b9250506080613c0688828901613b83565b9150509295509295909350565b6000613c1f8287613480565b602082019150613c2f8286613480565b602082019150613c3f8285612f31565b602082019150613c4f8284612f31565b60208201915081905095945050505050565b7f4678526f6f7454756e6e656c3a20494e56414c49445f48454144455200000000600082015250565b6000613c97601c83612f96565b9150613ca282613c61565b602082019050919050565b60006020820190508181036000830152613cc681613c8a565b9050919050565b6000604082019050613ce26000830185612b3d565b613cef6020830184613039565b9392505050565b7f4e487b7100000000000000000000000000000000000000000000000000000000600052601260045260246000fd5b6000613d3082612c4a565b9150613d3b83612c4a565b925082613d4b57613d4a613cf6565b5b828206905092915050565b6000613d6182612c4a565b9150613d6c83612c4a565b925082613d7c57613d7b613cf6565b5b828204905092915050565b6000613d92826132e8565b9150613d9d836132e8565b925082613dad57613dac613cf6565b5b828206905092915050565b6000613dc3826132e8565b9150613dce836132e8565b925082613dde57613ddd613cf6565b5b828204905092915050565b60008160011c9050919050565b6000808291508390505b6001851115613e4057808604811115613e1c57613e1b613a4d565b5b6001851615613e2b5780820291505b8081029050613e3985613de9565b9450613e00565b94509492505050565b600082613e595760019050613f15565b81613e675760009050613f15565b8160018114613e7d5760028114613e8757613eb6565b6001915050613f15565b60ff841115613e9957613e98613a4d565b5b8360020a915084821115613eb057613eaf613a4d565b5b50613f15565b5060208310610133831016604e8410600b8410161715613eeb5782820a905083811115613ee657613ee5613a4d565b5b613f15565b613ef88484846001613df6565b92509050818404811115613f0f57613f0e613a4d565b5b81810290505b9392505050565b6000613f2782612c4a565b9150613f3283612c4a565b9250613f5f7fffffffffffffffffffffffffffffffffffffffffffffffffffffffffffffffff8484613e49565b905092915050565b7f496e76616c69642070726f6f66206c656e677468000000000000000000000000600082015250565b6000613f9d601483612f96565b9150613fa882613f67565b602082019050919050565b60006020820190508181036000830152613fcc81613f90565b9050919050565b7f4c65616620696e64657820697320746f6f206269670000000000000000000000600082015250565b6000614009601583612f96565b915061401482613fd3565b602082019050919050565b6000602082019050818103600083015261403881613ffc565b9050919050565b600061404b8285612f31565b60208201915061405b8284612f31565b6020820191508190509392505050565b6000614076826132e8565b9150614081836132e8565b9250828203905060ff81111561409a57614099613a4d565b5b92915050565b7f416464726573733a20696e73756666696369656e742062616c616e636520666f60008201527f722063616c6c0000000000000000000000000000000000000000000000000000602082015250565b60006140fc602683612f96565b9150614107826140a0565b604082019050919050565b6000602082019050818103600083015261412b816140ef565b9050919050565b600061413e82846134a2565b915081905092915050565b7f416464726573733a2063616c6c20746f206e6f6e2d636f6e7472616374000000600082015250565b600061417f601d83612f96565b915061418a82614149565b602082019050919050565b600060208201905081810360008301526141ae81614172565b9050919050565b600060208201905081810360008301526141cf8184613359565b90509291505056fea26469706673582212207f4494b42a1198dd8a2cde91392fa32bc4c3cd84bbf3ffa0323320dff130f6b264736f6c63430008110033",
  "immutableReferences": {
    "3937": [
      {
        "length": 32,
        "start": 778
      },
      {
        "length": 32,
        "start": 2512
      }
    ]
  },
  "source": "// SPDX-License-Identifier: MIT\npragma solidity ^0.8.0;\n\nimport {ERC20} from '@maticnetwork/fx-portal/contracts/lib/ERC20.sol';\nimport {Create2} from '@maticnetwork/fx-portal/contracts/lib/Create2.sol';\nimport {FxBaseRootTunnel} from '@maticnetwork/fx-portal/contracts/tunnel/FxBaseRootTunnel.sol';\nimport {SafeERC20, IERC20} from '@openzeppelin/contracts/token/ERC20/utils/SafeERC20.sol';\n\n/**\n * @title FxERC20RootTunnel\n */\ncontract FxERC20RootTunnel is FxBaseRootTunnel, Create2 {\n    using SafeERC20 for IERC20;\n    // maybe DEPOSIT and MAP_TOKEN can be reduced to bytes4\n    bytes32 public constant DEPOSIT = keccak256('DEPOSIT');\n    bytes32 public constant MAP_TOKEN = keccak256('MAP_TOKEN');\n\n    event TokenMappedERC20(\n        address indexed rootToken,\n        address indexed childToken\n    );\n    event FxWithdrawERC20(\n        address indexed rootToken,\n        address indexed childToken,\n        address indexed userAddress,\n        uint256 amount\n    );\n    event FxDepositERC20(\n        address indexed rootToken,\n        address indexed depositor,\n        address indexed userAddress,\n        uint256 amount\n    );\n\n    mapping(address => address) public rootToChildTokens;\n    bytes32 public immutable childTokenTemplateCodeHash;\n\n    constructor(\n        address _checkpointManager,\n        address _fxRoot,\n        address _fxERC20Token\n    ) FxBaseRootTunnel(_checkpointManager, _fxRoot) {\n        // compute child token template code hash\n        childTokenTemplateCodeHash = keccak256(\n            minimalProxyCreationCode(_fxERC20Token)\n        );\n    }\n\n    /**\n     * @notice Map a token to enable its movement via the PoS Portal, callable by everyone\n     * @param rootToken address of token on root chain\n     */\n    function mapToken(address rootToken) public {\n        // check if token is already mapped\n        require(\n            rootToChildTokens[rootToken] == address(0x0),\n            'FxERC20RootTunnel: ALREADY_MAPPED'\n        );\n\n        // name, symbol and decimals\n        ERC20 rootTokenContract = ERC20(rootToken);\n        string memory name = rootTokenContract.name();\n        string memory symbol = rootTokenContract.symbol();\n        uint8 decimals = rootTokenContract.decimals();\n\n        // MAP_TOKEN, encode(rootToken, name, symbol, decimals)\n        bytes memory message = abi.encode(\n            MAP_TOKEN,\n            abi.encode(rootToken, name, symbol, decimals)\n        );\n        _sendMessageToChild(message);\n\n        // compute child token address before deployment using create2\n        bytes32 salt = keccak256(abi.encodePacked(rootToken));\n        address childToken = computedCreate2Address(\n            salt,\n            childTokenTemplateCodeHash,\n            fxChildTunnel\n        );\n\n        // add into mapped tokens\n        rootToChildTokens[rootToken] = childToken;\n        emit TokenMappedERC20(rootToken, childToken);\n    }\n\n    function deposit(\n        address rootToken,\n        address user,\n        uint256 amount,\n        bytes memory data\n    ) public {\n        // map token if not mapped\n        if (rootToChildTokens[rootToken] == address(0x0)) {\n            mapToken(rootToken);\n        }\n\n        // transfer from depositor to this contract\n        IERC20(rootToken).safeTransferFrom(\n            msg.sender, // depositor\n            address(this), // manager contract\n            amount\n        );\n\n        // DEPOSIT, encode(rootToken, depositor, user, amount, extra data)\n        bytes memory message = abi.encode(\n            DEPOSIT,\n            abi.encode(rootToken, msg.sender, user, amount, data)\n        );\n        _sendMessageToChild(message);\n        emit FxDepositERC20(rootToken, msg.sender, user, amount);\n    }\n\n    // exit processor\n    function _processMessageFromChild(bytes memory data) internal override {\n        (\n            address rootToken,\n            address childToken,\n            address to,\n            uint256 amount\n        ) = abi.decode(data, (address, address, address, uint256));\n        // validate mapping for root to child\n        require(\n            rootToChildTokens[rootToken] == childToken,\n            'FxERC20RootTunnel: INVALID_MAPPING_ON_EXIT'\n        );\n\n        // transfer from tokens to\n        IERC20(rootToken).safeTransfer(to, amount);\n        emit FxWithdrawERC20(rootToken, childToken, to, amount);\n    }\n}\n",
  "sourcePath": "/Users/gregorycorin/Desktop/Vetri_dev/Bridge/fx-portal-permit/contracts/FxERC20RootTunnel.sol",
  "compiler": {
    "name": "solc",
    "version": "0.8.17+commit.8df45f5f.Emscripten.clang"
  },
  "schemaVersion": "3.4.10",
  "updatedAt": "2023-02-28T01:27:16.209Z",
  "networkType": "ethereum",
  "devdoc": {
    "kind": "dev",
    "methods": {
      "mapToken(address)": {
        "params": {
          "rootToken": "address of token on root chain"
        }
      },
      "receiveMessage(bytes)": {
        "details": "This function verifies if the transaction actually happened on child chain",
        "params": {
          "inputData": "RLP encoded data of the reference tx containing following list of fields  0 - headerNumber - Checkpoint header block number containing the reference tx  1 - blockProof - Proof that the block header (in the child chain) is a leaf in the submitted merkle root  2 - blockNumber - Block number containing the reference tx on child chain  3 - blockTime - Reference tx block time  4 - txRoot - Transactions root of block  5 - receiptRoot - Receipts root of block  6 - receipt - Receipt of the reference transaction  7 - receiptProof - Merkle proof of the reference receipt  8 - branchMask - 32 bits denoting the path of receipt in merkle tree  9 - receiptLogIndex - Log Index to read from the receipt"
        }
      }
    },
    "title": "FxERC20RootTunnel",
    "version": 1
  },
  "userdoc": {
    "kind": "user",
    "methods": {
      "mapToken(address)": {
        "notice": "Map a token to enable its movement via the PoS Portal, callable by everyone"
      },
      "receiveMessage(bytes)": {
        "notice": "receive message from  L2 to L1, validated by proof"
      }
    },
    "version": 1
  }
}