{
  "contractName": "VldPermit",
  "abi": [
    {
      "inputs": [
        {
          "internalType": "string",
          "name": "name",
          "type": "string"
        },
        {
          "internalType": "string",
          "name": "symbol",
          "type": "string"
        }
      ],
      "stateMutability": "nonpayable",
      "type": "constructor"
    },
    {
      "anonymous": false,
      "inputs": [
        {
          "indexed": true,
          "internalType": "address",
          "name": "owner",
          "type": "address"
        },
        {
          "indexed": true,
          "internalType": "address",
          "name": "spender",
          "type": "address"
        },
        {
          "indexed": false,
          "internalType": "uint256",
          "name": "value",
          "type": "uint256"
        }
      ],
      "name": "Approval",
      "type": "event"
    },
    {
      "anonymous": false,
      "inputs": [
        {
          "indexed": true,
          "internalType": "address",
          "name": "previousOwner",
          "type": "address"
        },
        {
          "indexed": true,
          "internalType": "address",
          "name": "newOwner",
          "type": "address"
        }
      ],
      "name": "OwnershipTransferred",
      "type": "event"
    },
    {
      "anonymous": false,
      "inputs": [
        {
          "indexed": true,
          "internalType": "address",
          "name": "from",
          "type": "address"
        },
        {
          "indexed": true,
          "internalType": "address",
          "name": "to",
          "type": "address"
        },
        {
          "indexed": false,
          "internalType": "uint256",
          "name": "value",
          "type": "uint256"
        }
      ],
      "name": "Transfer",
      "type": "event"
    },
    {
      "inputs": [],
      "name": "DOMAIN_SEPARATOR",
      "outputs": [
        {
          "internalType": "bytes32",
          "name": "",
          "type": "bytes32"
        }
      ],
      "stateMutability": "view",
      "type": "function",
      "constant": true
    },
    {
      "inputs": [
        {
          "internalType": "address",
          "name": "owner",
          "type": "address"
        },
        {
          "internalType": "address",
          "name": "spender",
          "type": "address"
        }
      ],
      "name": "allowance",
      "outputs": [
        {
          "internalType": "uint256",
          "name": "",
          "type": "uint256"
        }
      ],
      "stateMutability": "view",
      "type": "function",
      "constant": true
    },
    {
      "inputs": [
        {
          "internalType": "address",
          "name": "spender",
          "type": "address"
        },
        {
          "internalType": "uint256",
          "name": "amount",
          "type": "uint256"
        }
      ],
      "name": "approve",
      "outputs": [
        {
          "internalType": "bool",
          "name": "",
          "type": "bool"
        }
      ],
      "stateMutability": "nonpayable",
      "type": "function"
    },
    {
      "inputs": [
        {
          "internalType": "address",
          "name": "account",
          "type": "address"
        }
      ],
      "name": "balanceOf",
      "outputs": [
        {
          "internalType": "uint256",
          "name": "",
          "type": "uint256"
        }
      ],
      "stateMutability": "view",
      "type": "function",
      "constant": true
    },
    {
      "inputs": [],
      "name": "decimals",
      "outputs": [
        {
          "internalType": "uint8",
          "name": "",
          "type": "uint8"
        }
      ],
      "stateMutability": "view",
      "type": "function",
      "constant": true
    },
    {
      "inputs": [
        {
          "internalType": "address",
          "name": "spender",
          "type": "address"
        },
        {
          "internalType": "uint256",
          "name": "subtractedValue",
          "type": "uint256"
        }
      ],
      "name": "decreaseAllowance",
      "outputs": [
        {
          "internalType": "bool",
          "name": "",
          "type": "bool"
        }
      ],
      "stateMutability": "nonpayable",
      "type": "function"
    },
    {
      "inputs": [
        {
          "internalType": "address",
          "name": "spender",
          "type": "address"
        },
        {
          "internalType": "uint256",
          "name": "addedValue",
          "type": "uint256"
        }
      ],
      "name": "increaseAllowance",
      "outputs": [
        {
          "internalType": "bool",
          "name": "",
          "type": "bool"
        }
      ],
      "stateMutability": "nonpayable",
      "type": "function"
    },
    {
      "inputs": [],
      "name": "name",
      "outputs": [
        {
          "internalType": "string",
          "name": "",
          "type": "string"
        }
      ],
      "stateMutability": "view",
      "type": "function",
      "constant": true
    },
    {
      "inputs": [
        {
          "internalType": "address",
          "name": "owner",
          "type": "address"
        }
      ],
      "name": "nonces",
      "outputs": [
        {
          "internalType": "uint256",
          "name": "",
          "type": "uint256"
        }
      ],
      "stateMutability": "view",
      "type": "function",
      "constant": true
    },
    {
      "inputs": [],
      "name": "owner",
      "outputs": [
        {
          "internalType": "address",
          "name": "",
          "type": "address"
        }
      ],
      "stateMutability": "view",
      "type": "function",
      "constant": true
    },
    {
      "inputs": [
        {
          "internalType": "address",
          "name": "owner",
          "type": "address"
        },
        {
          "internalType": "address",
          "name": "spender",
          "type": "address"
        },
        {
          "internalType": "uint256",
          "name": "value",
          "type": "uint256"
        },
        {
          "internalType": "uint256",
          "name": "deadline",
          "type": "uint256"
        },
        {
          "internalType": "uint8",
          "name": "v",
          "type": "uint8"
        },
        {
          "internalType": "bytes32",
          "name": "r",
          "type": "bytes32"
        },
        {
          "internalType": "bytes32",
          "name": "s",
          "type": "bytes32"
        }
      ],
      "name": "permit",
      "outputs": [],
      "stateMutability": "nonpayable",
      "type": "function"
    },
    {
      "inputs": [],
      "name": "renounceOwnership",
      "outputs": [],
      "stateMutability": "nonpayable",
      "type": "function"
    },
    {
      "inputs": [],
      "name": "symbol",
      "outputs": [
        {
          "internalType": "string",
          "name": "",
          "type": "string"
        }
      ],
      "stateMutability": "view",
      "type": "function",
      "constant": true
    },
    {
      "inputs": [],
      "name": "totalSupply",
      "outputs": [
        {
          "internalType": "uint256",
          "name": "",
          "type": "uint256"
        }
      ],
      "stateMutability": "view",
      "type": "function",
      "constant": true
    },
    {
      "inputs": [
        {
          "internalType": "address",
          "name": "to",
          "type": "address"
        },
        {
          "internalType": "uint256",
          "name": "amount",
          "type": "uint256"
        }
      ],
      "name": "transfer",
      "outputs": [
        {
          "internalType": "bool",
          "name": "",
          "type": "bool"
        }
      ],
      "stateMutability": "nonpayable",
      "type": "function"
    },
    {
      "inputs": [
        {
          "internalType": "address",
          "name": "from",
          "type": "address"
        },
        {
          "internalType": "address",
          "name": "to",
          "type": "address"
        },
        {
          "internalType": "uint256",
          "name": "amount",
          "type": "uint256"
        }
      ],
      "name": "transferFrom",
      "outputs": [
        {
          "internalType": "bool",
          "name": "",
          "type": "bool"
        }
      ],
      "stateMutability": "nonpayable",
      "type": "function"
    },
    {
      "inputs": [
        {
          "internalType": "address",
          "name": "newOwner",
          "type": "address"
        }
      ],
      "name": "transferOwnership",
      "outputs": [],
      "stateMutability": "nonpayable",
      "type": "function"
    },
    {
      "inputs": [
        {
          "internalType": "address",
          "name": "to",
          "type": "address"
        },
        {
          "internalType": "uint256",
          "name": "amount",
          "type": "uint256"
        }
      ],
      "name": "mint",
      "outputs": [],
      "stateMutability": "nonpayable",
      "type": "function"
    },
    {
      "inputs": [
        {
          "internalType": "uint256",
          "name": "amount",
          "type": "uint256"
        }
      ],
      "name": "burn",
      "outputs": [],
      "stateMutability": "nonpayable",
      "type": "function"
    }
  ],
  "bytecode": "0x6101406040523480156200001257600080fd5b50604051620034e6380380620034e68339818101604052810190620000389190620005cf565b81806040518060400160405280600181526020017f3100000000000000000000000000000000000000000000000000000000000000815250848481600390816200008391906200089f565b5080600490816200009591906200089f565b50505060008280519060200120905060008280519060200120905060007f8b73c3c69bb8fe3d512ecc4cf759cc79239f7b179b0ffacaa9a75d522b39400f90508260e081815250508161010081815250504660a0818152505062000101818484620001b260201b60201c565b608081815250503073ffffffffffffffffffffffffffffffffffffffff1660c08173ffffffffffffffffffffffffffffffffffffffff16815250508061012081815250505050505050506200016b6200015f620001ee60201b60201c565b620001f660201b60201c565b620001aa3362000180620002bc60201b60201c565b600a6200018e919062000b16565b620f42406200019e919062000b67565b620002c560201b60201c565b505062000d5b565b60008383834630604051602001620001cf95949392919062000c23565b6040516020818303038152906040528051906020012090509392505050565b600033905090565b6000600760009054906101000a900473ffffffffffffffffffffffffffffffffffffffff16905081600760006101000a81548173ffffffffffffffffffffffffffffffffffffffff021916908373ffffffffffffffffffffffffffffffffffffffff1602179055508173ffffffffffffffffffffffffffffffffffffffff168173ffffffffffffffffffffffffffffffffffffffff167f8be0079c531659141344cd1fd0a4f28419497f9722a3daafe3b4186f6b6457e060405160405180910390a35050565b60006012905090565b600073ffffffffffffffffffffffffffffffffffffffff168273ffffffffffffffffffffffffffffffffffffffff160362000337576040517f08c379a00000000000000000000000000000000000000000000000000000000081526004016200032e9062000ce1565b60405180910390fd5b6200034b600083836200043260201b60201c565b80600260008282546200035f919062000d03565b92505081905550806000808473ffffffffffffffffffffffffffffffffffffffff1673ffffffffffffffffffffffffffffffffffffffff168152602001908152602001600020600082825401925050819055508173ffffffffffffffffffffffffffffffffffffffff16600073ffffffffffffffffffffffffffffffffffffffff167fddf252ad1be2c89b69c2b068fc378daa952ba7f163c4a11628f55a4df523b3ef8360405162000412919062000d3e565b60405180910390a36200042e600083836200043760201b60201c565b5050565b505050565b505050565b6000604051905090565b600080fd5b600080fd5b600080fd5b600080fd5b6000601f19601f8301169050919050565b7f4e487b7100000000000000000000000000000000000000000000000000000000600052604160045260246000fd5b620004a5826200045a565b810181811067ffffffffffffffff82111715620004c757620004c66200046b565b5b80604052505050565b6000620004dc6200043c565b9050620004ea82826200049a565b919050565b600067ffffffffffffffff8211156200050d576200050c6200046b565b5b62000518826200045a565b9050602081019050919050565b60005b838110156200054557808201518184015260208101905062000528565b60008484015250505050565b6000620005686200056284620004ef565b620004d0565b90508281526020810184848401111562000587576200058662000455565b5b6200059484828562000525565b509392505050565b600082601f830112620005b457620005b362000450565b5b8151620005c684826020860162000551565b91505092915050565b60008060408385031215620005e957620005e862000446565b5b600083015167ffffffffffffffff8111156200060a57620006096200044b565b5b62000618858286016200059c565b925050602083015167ffffffffffffffff8111156200063c576200063b6200044b565b5b6200064a858286016200059c565b9150509250929050565b600081519050919050565b7f4e487b7100000000000000000000000000000000000000000000000000000000600052602260045260246000fd5b60006002820490506001821680620006a757607f821691505b602082108103620006bd57620006bc6200065f565b5b50919050565b60008190508160005260206000209050919050565b60006020601f8301049050919050565b600082821b905092915050565b600060088302620007277fffffffffffffffffffffffffffffffffffffffffffffffffffffffffffffffff82620006e8565b620007338683620006e8565b95508019841693508086168417925050509392505050565b6000819050919050565b6000819050919050565b6000620007806200077a62000774846200074b565b62000755565b6200074b565b9050919050565b6000819050919050565b6200079c836200075f565b620007b4620007ab8262000787565b848454620006f5565b825550505050565b600090565b620007cb620007bc565b620007d881848462000791565b505050565b5b818110156200080057620007f4600082620007c1565b600181019050620007de565b5050565b601f8211156200084f576200081981620006c3565b6200082484620006d8565b8101602085101562000834578190505b6200084c6200084385620006d8565b830182620007dd565b50505b505050565b600082821c905092915050565b6000620008746000198460080262000854565b1980831691505092915050565b60006200088f838362000861565b9150826002028217905092915050565b620008aa8262000654565b67ffffffffffffffff811115620008c657620008c56200046b565b5b620008d282546200068e565b620008df82828562000804565b600060209050601f83116001811462000917576000841562000902578287015190505b6200090e858262000881565b8655506200097e565b601f1984166200092786620006c3565b60005b8281101562000951578489015182556001820191506020850194506020810190506200092a565b868310156200097157848901516200096d601f89168262000861565b8355505b6001600288020188555050505b505050505050565b7f4e487b7100000000000000000000000000000000000000000000000000000000600052601160045260246000fd5b60008160011c9050919050565b6000808291508390505b600185111562000a1457808604811115620009ec57620009eb62000986565b5b6001851615620009fc5780820291505b808102905062000a0c85620009b5565b9450620009cc565b94509492505050565b60008262000a2f576001905062000b02565b8162000a3f576000905062000b02565b816001811462000a58576002811462000a635762000a99565b600191505062000b02565b60ff84111562000a785762000a7762000986565b5b8360020a91508482111562000a925762000a9162000986565b5b5062000b02565b5060208310610133831016604e8410600b841016171562000ad35782820a90508381111562000acd5762000acc62000986565b5b62000b02565b62000ae28484846001620009c2565b9250905081840481111562000afc5762000afb62000986565b5b81810290505b9392505050565b600060ff82169050919050565b600062000b23826200074b565b915062000b308362000b09565b925062000b5f7fffffffffffffffffffffffffffffffffffffffffffffffffffffffffffffffff848462000a1d565b905092915050565b600062000b74826200074b565b915062000b81836200074b565b925082820262000b91816200074b565b9150828204841483151762000bab5762000baa62000986565b5b5092915050565b6000819050919050565b62000bc78162000bb2565b82525050565b62000bd8816200074b565b82525050565b600073ffffffffffffffffffffffffffffffffffffffff82169050919050565b600062000c0b8262000bde565b9050919050565b62000c1d8162000bfe565b82525050565b600060a08201905062000c3a600083018862000bbc565b62000c49602083018762000bbc565b62000c58604083018662000bbc565b62000c67606083018562000bcd565b62000c76608083018462000c12565b9695505050505050565b600082825260208201905092915050565b7f45524332303a206d696e7420746f20746865207a65726f206164647265737300600082015250565b600062000cc9601f8362000c80565b915062000cd68262000c91565b602082019050919050565b6000602082019050818103600083015262000cfc8162000cba565b9050919050565b600062000d10826200074b565b915062000d1d836200074b565b925082820190508082111562000d385762000d3762000986565b5b92915050565b600060208201905062000d55600083018462000bcd565b92915050565b60805160a05160c05160e051610100516101205161273b62000dab6000396000610f0301526000610f4501526000610f2401526000610e5901526000610eaf01526000610ed8015261273b6000f3fe608060405234801561001057600080fd5b50600436106101215760003560e01c806370a08231116100ad578063a457c2d711610071578063a457c2d71461030c578063a9059cbb1461033c578063d505accf1461036c578063dd62ed3e14610388578063f2fde38b146103b857610121565b806370a0823114610266578063715018a6146102965780637ecebe00146102a05780638da5cb5b146102d057806395d89b41146102ee57610121565b8063313ce567116100f4578063313ce567146101c25780633644e515146101e057806339509351146101fe57806340c10f191461022e57806342966c681461024a57610121565b806306fdde0314610126578063095ea7b31461014457806318160ddd1461017457806323b872dd14610192575b600080fd5b61012e6103d4565b60405161013b91906117ec565b60405180910390f35b61015e600480360381019061015991906118a7565b610466565b60405161016b9190611902565b60405180910390f35b61017c610489565b604051610189919061192c565b60405180910390f35b6101ac60048036038101906101a79190611947565b610493565b6040516101b99190611902565b60405180910390f35b6101ca6104c2565b6040516101d791906119b6565b60405180910390f35b6101e86104cb565b6040516101f591906119ea565b60405180910390f35b610218600480360381019061021391906118a7565b6104da565b6040516102259190611902565b60405180910390f35b610248600480360381019061024391906118a7565b610511565b005b610264600480360381019061025f9190611a05565b610527565b005b610280600480360381019061027b9190611a32565b610534565b60405161028d919061192c565b60405180910390f35b61029e61057c565b005b6102ba60048036038101906102b59190611a32565b610590565b6040516102c7919061192c565b60405180910390f35b6102d86105e0565b6040516102e59190611a6e565b60405180910390f35b6102f661060a565b60405161030391906117ec565b60405180910390f35b610326600480360381019061032191906118a7565b61069c565b6040516103339190611902565b60405180910390f35b610356600480360381019061035191906118a7565b610713565b6040516103639190611902565b60405180910390f35b61038660048036038101906103819190611ae1565b610736565b005b6103a2600480360381019061039d9190611b83565b610878565b6040516103af919061192c565b60405180910390f35b6103d260048036038101906103cd9190611a32565b6108ff565b005b6060600380546103e390611bf2565b80601f016020809104026020016040519081016040528092919081815260200182805461040f90611bf2565b801561045c5780601f106104315761010080835404028352916020019161045c565b820191906000526020600020905b81548152906001019060200180831161043f57829003601f168201915b5050505050905090565b600080610471610982565b905061047e81858561098a565b600191505092915050565b6000600254905090565b60008061049e610982565b90506104ab858285610b53565b6104b6858585610bdf565b60019150509392505050565b60006012905090565b60006104d5610e55565b905090565b6000806104e5610982565b90506105068185856104f78589610878565b6105019190611c52565b61098a565b600191505092915050565b610519610f6f565b6105238282610fed565b5050565b6105313382611143565b50565b60008060008373ffffffffffffffffffffffffffffffffffffffff1673ffffffffffffffffffffffffffffffffffffffff168152602001908152602001600020549050919050565b610584610f6f565b61058e6000611310565b565b60006105d9600560008473ffffffffffffffffffffffffffffffffffffffff1673ffffffffffffffffffffffffffffffffffffffff1681526020019081526020016000206113d6565b9050919050565b6000600760009054906101000a900473ffffffffffffffffffffffffffffffffffffffff16905090565b60606004805461061990611bf2565b80601f016020809104026020016040519081016040528092919081815260200182805461064590611bf2565b80156106925780601f1061066757610100808354040283529160200191610692565b820191906000526020600020905b81548152906001019060200180831161067557829003601f168201915b5050505050905090565b6000806106a7610982565b905060006106b58286610878565b9050838110156106fa576040517f08c379a00000000000000000000000000000000000000000000000000000000081526004016106f190611cf8565b60405180910390fd5b610707828686840361098a565b60019250505092915050565b60008061071e610982565b905061072b818585610bdf565b600191505092915050565b83421115610779576040517f08c379a000000000000000000000000000000000000000000000000000000000815260040161077090611d64565b60405180910390fd5b60007f6e71edae12b1b97f4d1f60370fef10105fa2faae0126114a169c64845d6126c98888886107a88c6113e4565b896040516020016107be96959493929190611d84565b60405160208183030381529060405280519060200120905060006107e182611442565b905060006107f18287878761145c565b90508973ffffffffffffffffffffffffffffffffffffffff168173ffffffffffffffffffffffffffffffffffffffff1614610861576040517f08c379a000000000000000000000000000000000000000000000000000000000815260040161085890611e31565b60405180910390fd5b61086c8a8a8a61098a565b50505050505050505050565b6000600160008473ffffffffffffffffffffffffffffffffffffffff1673ffffffffffffffffffffffffffffffffffffffff16815260200190815260200160002060008373ffffffffffffffffffffffffffffffffffffffff1673ffffffffffffffffffffffffffffffffffffffff16815260200190815260200160002054905092915050565b610907610f6f565b600073ffffffffffffffffffffffffffffffffffffffff168173ffffffffffffffffffffffffffffffffffffffff1603610976576040517f08c379a000000000000000000000000000000000000000000000000000000000815260040161096d90611ec3565b60405180910390fd5b61097f81611310565b50565b600033905090565b600073ffffffffffffffffffffffffffffffffffffffff168373ffffffffffffffffffffffffffffffffffffffff16036109f9576040517f08c379a00000000000000000000000000000000000000000000000000000000081526004016109f090611f55565b60405180910390fd5b600073ffffffffffffffffffffffffffffffffffffffff168273ffffffffffffffffffffffffffffffffffffffff1603610a68576040517f08c379a0000000000000000000000000000000000000000000000000000000008152600401610a5f90611fe7565b60405180910390fd5b80600160008573ffffffffffffffffffffffffffffffffffffffff1673ffffffffffffffffffffffffffffffffffffffff16815260200190815260200160002060008473ffffffffffffffffffffffffffffffffffffffff1673ffffffffffffffffffffffffffffffffffffffff168152602001908152602001600020819055508173ffffffffffffffffffffffffffffffffffffffff168373ffffffffffffffffffffffffffffffffffffffff167f8c5be1e5ebec7d5bd14f71427d1e84f3dd0314c0f7b2291e5b200ac8c7c3b92583604051610b46919061192c565b60405180910390a3505050565b6000610b5f8484610878565b90507fffffffffffffffffffffffffffffffffffffffffffffffffffffffffffffffff8114610bd95781811015610bcb576040517f08c379a0000000000000000000000000000000000000000000000000000000008152600401610bc290612053565b60405180910390fd5b610bd8848484840361098a565b5b50505050565b600073ffffffffffffffffffffffffffffffffffffffff168373ffffffffffffffffffffffffffffffffffffffff1603610c4e576040517f08c379a0000000000000000000000000000000000000000000000000000000008152600401610c45906120e5565b60405180910390fd5b600073ffffffffffffffffffffffffffffffffffffffff168273ffffffffffffffffffffffffffffffffffffffff1603610cbd576040517f08c379a0000000000000000000000000000000000000000000000000000000008152600401610cb490612177565b60405180910390fd5b610cc8838383611487565b60008060008573ffffffffffffffffffffffffffffffffffffffff1673ffffffffffffffffffffffffffffffffffffffff16815260200190815260200160002054905081811015610d4e576040517f08c379a0000000000000000000000000000000000000000000000000000000008152600401610d4590612209565b60405180910390fd5b8181036000808673ffffffffffffffffffffffffffffffffffffffff1673ffffffffffffffffffffffffffffffffffffffff16815260200190815260200160002081905550816000808573ffffffffffffffffffffffffffffffffffffffff1673ffffffffffffffffffffffffffffffffffffffff168152602001908152602001600020600082825401925050819055508273ffffffffffffffffffffffffffffffffffffffff168473ffffffffffffffffffffffffffffffffffffffff167fddf252ad1be2c89b69c2b068fc378daa952ba7f163c4a11628f55a4df523b3ef84604051610e3c919061192c565b60405180910390a3610e4f84848461148c565b50505050565b60007f000000000000000000000000000000000000000000000000000000000000000073ffffffffffffffffffffffffffffffffffffffff163073ffffffffffffffffffffffffffffffffffffffff16148015610ed157507f000000000000000000000000000000000000000000000000000000000000000046145b15610efe577f00000000000000000000000000000000000000000000000000000000000000009050610f6c565b610f697f00000000000000000000000000000000000000000000000000000000000000007f00000000000000000000000000000000000000000000000000000000000000007f0000000000000000000000000000000000000000000000000000000000000000611491565b90505b90565b610f77610982565b73ffffffffffffffffffffffffffffffffffffffff16610f956105e0565b73ffffffffffffffffffffffffffffffffffffffff1614610feb576040517f08c379a0000000000000000000000000000000000000000000000000000000008152600401610fe290612275565b60405180910390fd5b565b600073ffffffffffffffffffffffffffffffffffffffff168273ffffffffffffffffffffffffffffffffffffffff160361105c576040517f08c379a0000000000000000000000000000000000000000000000000000000008152600401611053906122e1565b60405180910390fd5b61106860008383611487565b806002600082825461107a9190611c52565b92505081905550806000808473ffffffffffffffffffffffffffffffffffffffff1673ffffffffffffffffffffffffffffffffffffffff168152602001908152602001600020600082825401925050819055508173ffffffffffffffffffffffffffffffffffffffff16600073ffffffffffffffffffffffffffffffffffffffff167fddf252ad1be2c89b69c2b068fc378daa952ba7f163c4a11628f55a4df523b3ef8360405161112b919061192c565b60405180910390a361113f6000838361148c565b5050565b600073ffffffffffffffffffffffffffffffffffffffff168273ffffffffffffffffffffffffffffffffffffffff16036111b2576040517f08c379a00000000000000000000000000000000000000000000000000000000081526004016111a990612373565b60405180910390fd5b6111be82600083611487565b60008060008473ffffffffffffffffffffffffffffffffffffffff1673ffffffffffffffffffffffffffffffffffffffff16815260200190815260200160002054905081811015611244576040517f08c379a000000000000000000000000000000000000000000000000000000000815260040161123b90612405565b60405180910390fd5b8181036000808573ffffffffffffffffffffffffffffffffffffffff1673ffffffffffffffffffffffffffffffffffffffff1681526020019081526020016000208190555081600260008282540392505081905550600073ffffffffffffffffffffffffffffffffffffffff168373ffffffffffffffffffffffffffffffffffffffff167fddf252ad1be2c89b69c2b068fc378daa952ba7f163c4a11628f55a4df523b3ef846040516112f7919061192c565b60405180910390a361130b8360008461148c565b505050565b6000600760009054906101000a900473ffffffffffffffffffffffffffffffffffffffff16905081600760006101000a81548173ffffffffffffffffffffffffffffffffffffffff021916908373ffffffffffffffffffffffffffffffffffffffff1602179055508173ffffffffffffffffffffffffffffffffffffffff168173ffffffffffffffffffffffffffffffffffffffff167f8be0079c531659141344cd1fd0a4f28419497f9722a3daafe3b4186f6b6457e060405160405180910390a35050565b600081600001549050919050565b600080600560008473ffffffffffffffffffffffffffffffffffffffff1673ffffffffffffffffffffffffffffffffffffffff1681526020019081526020016000209050611431816113d6565b915061143c816114cb565b50919050565b600061145561144f610e55565b836114e1565b9050919050565b600080600061146d87878787611514565b9150915061147a816115f6565b8192505050949350505050565b505050565b505050565b600083838346306040516020016114ac959493929190612425565b6040516020818303038152906040528051906020012090509392505050565b6001816000016000828254019250508190555050565b600082826040516020016114f69291906124f0565b60405160208183030381529060405280519060200120905092915050565b6000807f7fffffffffffffffffffffffffffffff5d576e7357a4501ddfe92f46681b20a08360001c111561154f5760006003915091506115ed565b6000600187878787604051600081526020016040526040516115749493929190612527565b6020604051602081039080840390855afa158015611596573d6000803e3d6000fd5b505050602060405103519050600073ffffffffffffffffffffffffffffffffffffffff168173ffffffffffffffffffffffffffffffffffffffff16036115e4576000600192509250506115ed565b80600092509250505b94509492505050565b6000600481111561160a5761160961256c565b5b81600481111561161d5761161c61256c565b5b031561175957600160048111156116375761163661256c565b5b81600481111561164a5761164961256c565b5b0361168a576040517f08c379a0000000000000000000000000000000000000000000000000000000008152600401611681906125e7565b60405180910390fd5b6002600481111561169e5761169d61256c565b5b8160048111156116b1576116b061256c565b5b036116f1576040517f08c379a00000000000000000000000000000000000000000000000000000000081526004016116e890612653565b60405180910390fd5b600360048111156117055761170461256c565b5b8160048111156117185761171761256c565b5b03611758576040517f08c379a000000000000000000000000000000000000000000000000000000000815260040161174f906126e5565b60405180910390fd5b5b50565b600081519050919050565b600082825260208201905092915050565b60005b8381101561179657808201518184015260208101905061177b565b60008484015250505050565b6000601f19601f8301169050919050565b60006117be8261175c565b6117c88185611767565b93506117d8818560208601611778565b6117e1816117a2565b840191505092915050565b6000602082019050818103600083015261180681846117b3565b905092915050565b600080fd5b600073ffffffffffffffffffffffffffffffffffffffff82169050919050565b600061183e82611813565b9050919050565b61184e81611833565b811461185957600080fd5b50565b60008135905061186b81611845565b92915050565b6000819050919050565b61188481611871565b811461188f57600080fd5b50565b6000813590506118a18161187b565b92915050565b600080604083850312156118be576118bd61180e565b5b60006118cc8582860161185c565b92505060206118dd85828601611892565b9150509250929050565b60008115159050919050565b6118fc816118e7565b82525050565b600060208201905061191760008301846118f3565b92915050565b61192681611871565b82525050565b6000602082019050611941600083018461191d565b92915050565b6000806000606084860312156119605761195f61180e565b5b600061196e8682870161185c565b935050602061197f8682870161185c565b925050604061199086828701611892565b9150509250925092565b600060ff82169050919050565b6119b08161199a565b82525050565b60006020820190506119cb60008301846119a7565b92915050565b6000819050919050565b6119e4816119d1565b82525050565b60006020820190506119ff60008301846119db565b92915050565b600060208284031215611a1b57611a1a61180e565b5b6000611a2984828501611892565b91505092915050565b600060208284031215611a4857611a4761180e565b5b6000611a568482850161185c565b91505092915050565b611a6881611833565b82525050565b6000602082019050611a836000830184611a5f565b92915050565b611a928161199a565b8114611a9d57600080fd5b50565b600081359050611aaf81611a89565b92915050565b611abe816119d1565b8114611ac957600080fd5b50565b600081359050611adb81611ab5565b92915050565b600080600080600080600060e0888a031215611b0057611aff61180e565b5b6000611b0e8a828b0161185c565b9750506020611b1f8a828b0161185c565b9650506040611b308a828b01611892565b9550506060611b418a828b01611892565b9450506080611b528a828b01611aa0565b93505060a0611b638a828b01611acc565b92505060c0611b748a828b01611acc565b91505092959891949750929550565b60008060408385031215611b9a57611b9961180e565b5b6000611ba88582860161185c565b9250506020611bb98582860161185c565b9150509250929050565b7f4e487b7100000000000000000000000000000000000000000000000000000000600052602260045260246000fd5b60006002820490506001821680611c0a57607f821691505b602082108103611c1d57611c1c611bc3565b5b50919050565b7f4e487b7100000000000000000000000000000000000000000000000000000000600052601160045260246000fd5b6000611c5d82611871565b9150611c6883611871565b9250828201905080821115611c8057611c7f611c23565b5b92915050565b7f45524332303a2064656372656173656420616c6c6f77616e63652062656c6f7760008201527f207a65726f000000000000000000000000000000000000000000000000000000602082015250565b6000611ce2602583611767565b9150611ced82611c86565b604082019050919050565b60006020820190508181036000830152611d1181611cd5565b9050919050565b7f45524332305065726d69743a206578706972656420646561646c696e65000000600082015250565b6000611d4e601d83611767565b9150611d5982611d18565b602082019050919050565b60006020820190508181036000830152611d7d81611d41565b9050919050565b600060c082019050611d9960008301896119db565b611da66020830188611a5f565b611db36040830187611a5f565b611dc0606083018661191d565b611dcd608083018561191d565b611dda60a083018461191d565b979650505050505050565b7f45524332305065726d69743a20696e76616c6964207369676e61747572650000600082015250565b6000611e1b601e83611767565b9150611e2682611de5565b602082019050919050565b60006020820190508181036000830152611e4a81611e0e565b9050919050565b7f4f776e61626c653a206e6577206f776e657220697320746865207a65726f206160008201527f6464726573730000000000000000000000000000000000000000000000000000602082015250565b6000611ead602683611767565b9150611eb882611e51565b604082019050919050565b60006020820190508181036000830152611edc81611ea0565b9050919050565b7f45524332303a20617070726f76652066726f6d20746865207a65726f2061646460008201527f7265737300000000000000000000000000000000000000000000000000000000602082015250565b6000611f3f602483611767565b9150611f4a82611ee3565b604082019050919050565b60006020820190508181036000830152611f6e81611f32565b9050919050565b7f45524332303a20617070726f766520746f20746865207a65726f20616464726560008201527f7373000000000000000000000000000000000000000000000000000000000000602082015250565b6000611fd1602283611767565b9150611fdc82611f75565b604082019050919050565b6000602082019050818103600083015261200081611fc4565b9050919050565b7f45524332303a20696e73756666696369656e7420616c6c6f77616e6365000000600082015250565b600061203d601d83611767565b915061204882612007565b602082019050919050565b6000602082019050818103600083015261206c81612030565b9050919050565b7f45524332303a207472616e736665722066726f6d20746865207a65726f20616460008201527f6472657373000000000000000000000000000000000000000000000000000000602082015250565b60006120cf602583611767565b91506120da82612073565b604082019050919050565b600060208201905081810360008301526120fe816120c2565b9050919050565b7f45524332303a207472616e7366657220746f20746865207a65726f206164647260008201527f6573730000000000000000000000000000000000000000000000000000000000602082015250565b6000612161602383611767565b915061216c82612105565b604082019050919050565b6000602082019050818103600083015261219081612154565b9050919050565b7f45524332303a207472616e7366657220616d6f756e742065786365656473206260008201527f616c616e63650000000000000000000000000000000000000000000000000000602082015250565b60006121f3602683611767565b91506121fe82612197565b604082019050919050565b60006020820190508181036000830152612222816121e6565b9050919050565b7f4f776e61626c653a2063616c6c6572206973206e6f7420746865206f776e6572600082015250565b600061225f602083611767565b915061226a82612229565b602082019050919050565b6000602082019050818103600083015261228e81612252565b9050919050565b7f45524332303a206d696e7420746f20746865207a65726f206164647265737300600082015250565b60006122cb601f83611767565b91506122d682612295565b602082019050919050565b600060208201905081810360008301526122fa816122be565b9050919050565b7f45524332303a206275726e2066726f6d20746865207a65726f2061646472657360008201527f7300000000000000000000000000000000000000000000000000000000000000602082015250565b600061235d602183611767565b915061236882612301565b604082019050919050565b6000602082019050818103600083015261238c81612350565b9050919050565b7f45524332303a206275726e20616d6f756e7420657863656564732062616c616e60008201527f6365000000000000000000000000000000000000000000000000000000000000602082015250565b60006123ef602283611767565b91506123fa82612393565b604082019050919050565b6000602082019050818103600083015261241e816123e2565b9050919050565b600060a08201905061243a60008301886119db565b61244760208301876119db565b61245460408301866119db565b612461606083018561191d565b61246e6080830184611a5f565b9695505050505050565b600081905092915050565b7f1901000000000000000000000000000000000000000000000000000000000000600082015250565b60006124b9600283612478565b91506124c482612483565b600282019050919050565b6000819050919050565b6124ea6124e5826119d1565b6124cf565b82525050565b60006124fb826124ac565b915061250782856124d9565b60208201915061251782846124d9565b6020820191508190509392505050565b600060808201905061253c60008301876119db565b61254960208301866119a7565b61255660408301856119db565b61256360608301846119db565b95945050505050565b7f4e487b7100000000000000000000000000000000000000000000000000000000600052602160045260246000fd5b7f45434453413a20696e76616c6964207369676e61747572650000000000000000600082015250565b60006125d1601883611767565b91506125dc8261259b565b602082019050919050565b60006020820190508181036000830152612600816125c4565b9050919050565b7f45434453413a20696e76616c6964207369676e6174757265206c656e67746800600082015250565b600061263d601f83611767565b915061264882612607565b602082019050919050565b6000602082019050818103600083015261266c81612630565b9050919050565b7f45434453413a20696e76616c6964207369676e6174757265202773272076616c60008201527f7565000000000000000000000000000000000000000000000000000000000000602082015250565b60006126cf602283611767565b91506126da82612673565b604082019050919050565b600060208201905081810360008301526126fe816126c2565b905091905056fea26469706673582212207ec54be2670b95bde07baa98ffd7dafb6bb7ee18c0ade4d65cb7699907b2358e64736f6c63430008110033",
  "immutableReferences": {
    "1648": [
      {
        "length": 32,
        "start": 3800
      }
    ],
    "1650": [
      {
        "length": 32,
        "start": 3759
      }
    ],
    "1652": [
      {
        "length": 32,
        "start": 3673
      }
    ],
    "1654": [
      {
        "length": 32,
        "start": 3876
      }
    ],
    "1656": [
      {
        "length": 32,
        "start": 3909
      }
    ],
    "1658": [
      {
        "length": 32,
        "start": 3843
      }
    ]
  },
  "source": "// SPDX-License-Identifier: MIT\npragma solidity ^0.8.0;\n\nimport '@openzeppelin/contracts/token/ERC20/ERC20.sol';\nimport '@openzeppelin/contracts/token/ERC20/extensions/draft-ERC20Permit.sol';\nimport '@openzeppelin/contracts/access/Ownable.sol';\n\ncontract VldPermit is ERC20, ERC20Permit, Ownable {\n    constructor(string memory name, string memory symbol)\n        ERC20(name, symbol)\n        ERC20Permit(name)\n    {\n        _mint(msg.sender, 1000000 * 10**decimals());\n    }\n\n    function mint(address to, uint256 amount) public onlyOwner {\n        _mint(to, amount);\n    }\n\n    function burn(uint256 amount) public {\n        _burn(msg.sender, amount);\n    }\n}\n",
  "sourcePath": "/Users/gregorycorin/Desktop/Vetri_dev/Bridge/fx-portal-permit/contracts/VldPermit.sol",
  "compiler": {
    "name": "solc",
    "version": "0.8.17+commit.8df45f5f.Emscripten.clang"
  },
  "schemaVersion": "3.4.10",
  "updatedAt": "2023-02-28T00:10:18.367Z",
  "networkType": "ethereum",
  "devdoc": {
    "kind": "dev",
    "methods": {
      "DOMAIN_SEPARATOR()": {
        "details": "See {IERC20Permit-DOMAIN_SEPARATOR}."
      },
      "allowance(address,address)": {
        "details": "See {IERC20-allowance}."
      },
      "approve(address,uint256)": {
        "details": "See {IERC20-approve}. NOTE: If `amount` is the maximum `uint256`, the allowance is not updated on `transferFrom`. This is semantically equivalent to an infinite approval. Requirements: - `spender` cannot be the zero address."
      },
      "balanceOf(address)": {
        "details": "See {IERC20-balanceOf}."
      },
      "decimals()": {
        "details": "Returns the number of decimals used to get its user representation. For example, if `decimals` equals `2`, a balance of `505` tokens should be displayed to a user as `5.05` (`505 / 10 ** 2`). Tokens usually opt for a value of 18, imitating the relationship between Ether and Wei. This is the value {ERC20} uses, unless this function is overridden; NOTE: This information is only used for _display_ purposes: it in no way affects any of the arithmetic of the contract, including {IERC20-balanceOf} and {IERC20-transfer}."
      },
      "decreaseAllowance(address,uint256)": {
        "details": "Atomically decreases the allowance granted to `spender` by the caller. This is an alternative to {approve} that can be used as a mitigation for problems described in {IERC20-approve}. Emits an {Approval} event indicating the updated allowance. Requirements: - `spender` cannot be the zero address. - `spender` must have allowance for the caller of at least `subtractedValue`."
      },
      "increaseAllowance(address,uint256)": {
        "details": "Atomically increases the allowance granted to `spender` by the caller. This is an alternative to {approve} that can be used as a mitigation for problems described in {IERC20-approve}. Emits an {Approval} event indicating the updated allowance. Requirements: - `spender` cannot be the zero address."
      },
      "name()": {
        "details": "Returns the name of the token."
      },
      "nonces(address)": {
        "details": "See {IERC20Permit-nonces}."
      },
      "owner()": {
        "details": "Returns the address of the current owner."
      },
      "permit(address,address,uint256,uint256,uint8,bytes32,bytes32)": {
        "details": "See {IERC20Permit-permit}."
      },
      "renounceOwnership()": {
        "details": "Leaves the contract without owner. It will not be possible to call `onlyOwner` functions anymore. Can only be called by the current owner. NOTE: Renouncing ownership will leave the contract without an owner, thereby removing any functionality that is only available to the owner."
      },
      "symbol()": {
        "details": "Returns the symbol of the token, usually a shorter version of the name."
      },
      "totalSupply()": {
        "details": "See {IERC20-totalSupply}."
      },
      "transfer(address,uint256)": {
        "details": "See {IERC20-transfer}. Requirements: - `to` cannot be the zero address. - the caller must have a balance of at least `amount`."
      },
      "transferFrom(address,address,uint256)": {
        "details": "See {IERC20-transferFrom}. Emits an {Approval} event indicating the updated allowance. This is not required by the EIP. See the note at the beginning of {ERC20}. NOTE: Does not update the allowance if the current allowance is the maximum `uint256`. Requirements: - `from` and `to` cannot be the zero address. - `from` must have a balance of at least `amount`. - the caller must have allowance for ``from``'s tokens of at least `amount`."
      },
      "transferOwnership(address)": {
        "details": "Transfers ownership of the contract to a new account (`newOwner`). Can only be called by the current owner."
      }
    },
    "version": 1
  },
  "userdoc": {
    "kind": "user",
    "methods": {},
    "version": 1
  }
}